:100000000C94D6010C94F3010C94F3010C946E0340
:100010000C94F3010C94F3010C94F3010C94F30190
:100020000C94F3010C94F3010C94F3010C94F30180
:100030000C94F3010C94F3010C94F3010C94F30170
:100040000C94F3010C94F3010C94F3010C94F30160
:100050000C94F3010C94F3010C94F3010C94F30150
:100060000C94F3010C94F3010C94F3010C94F30140
:100070000C94F3010C94F3010C94F301D6800182EB
:10008000F4A402C62D94ABC281CAF7C4709800C80C
:1000900000E08182020000000000000122202020F8
:1000A0000000200152505000000000015250F85052
:1000B000F85050012278A07028F02001C2C810200A
:1000C000409818016290A040A8906801622040000A
:1000D000000000011220404040201001422010107A
:1000E000102040010220A870A8200001022020F862
:1000F000202000010200000000602041020000F802
:1001000000000001020000000060600102081020F1
:1001100040800001728898A8C88870012260202061
:1001200020207001728808102040F801FA10201079
:100130000888700112305090F8101001FA80F00811
:1001400008887001324080F088887001FA08102019
:100150004040400172888870888870017288887871
:1001600008106001026060006060000102606000D1
:100170006020400112204080402010010200F80061
:10018000F800000142201008102040017288081079
:100190002000200172880868A8A8700172888888E9
:1001A000F8888801F28888F08888F0017288808059
:1001B00080887001E29088888890E001FA8080F061
:1001C0008080F801FA8080F080808001728880B899
:1001D000888878018A8888F8888888017220202099
:1001E000202070013A101010109060018A90A0C079
:1001F000A0908801828080808080F8018AD8A8A899
:10020000888888018A88C8A8988888017288888820
:1002100088887001F28888F08080800172888888E0
:10022000A8906801F28888F0A09088017A80807098
:100230000808F001FA202020202020018A888888E0
:10024000888870018A888888885020018A8888A8D0
:10025000A8A850018A885020508888018A88885030
:1002600020202001FA0810204080F8017240404010
:1002700040407001028040201008000172101010F0
:1002800010107001225088000000000102000000E0
:100290000000F80142201000000000010200700878
:1002A000788878018280B0C88888F0010200708068
:1002B000808870010A086898888878010200708830
:1002C000F8807001324840E0404040010278888860
:1002D000780870018280B0C8888888012200602078
:1002E000202070011200301010906001828090A0D8
:1002F000C0A0900162202020202070010200D0A820
:10030000A8A8A8010200B0C88888880102007088E7
:10031000888870010200F088F080800102006898EF
:10032000780808010200B0C8808080010200708057
:100330007008F0014240E0404048300102008888E7
:100340008898680102008888885020010200888807
:10035000A8A8500102008850205088010200888817
:10036000780870010200F8102040F80112202040A7
:1003700020201001222020202020200142202010B7
:1003800020204001020068900000000102000000EF
:100390000000000100505000008870000050500024
:1003A000007088000050500088A8500011241FBE23
:1003B000CFEFD0E1DEBFCDBF11E0A0E0B1E0EEEACB
:1003C000F8E102C005900D92AA3FB107D9F712E0FB
:1003D000AAEFB1E001C01D92A43FB107E1F70E946E
:1003E0004E020C94550C0C9400008091E502909103
:1003F000E6020E9451091092DC021092DB02109278
:10040000DE021092DD0208950E94850782E00E94BC
:1004100062078FEF9FEF9093E6028093E5021092C0
:10042000E4021092E3020E94F5010E94340A9093C4
:10043000ED028093EC02119A08950E9404020E943A
:10044000F50183E08093D80280E098EF9093E60274
:100450008093E5020E94F50180EE97E09093E4021C
:100460008093E30280E091E00E94F80A82E191E04B
:100470000E94F80A83E191E00E94F80A83E291E089
:100480000E94F80A81E08093D80283E391E00E9401
:10049000F80A8FE591E00E94F80A0895AF92BF92A2
:1004A000CF92DF92EF92FF920F931F93DF93CF9340
:1004B000CDB7DEB72A970FB6F894DEBF0FBECDBF1B
:1004C0000E941D0288EE93E02CE231E0F9013197A1
:1004D000F1F70197D9F70E94AF0488EE93E02CE280
:1004E00031E0F9013197F1F70197D9F7789400E0FD
:1004F0007E010894E11CF11CFCEDAF2EF5E0BF2E4F
:10050000ECE2CE2EE1E0DE2E2091CE02822F90E0B2
:10051000FC0175E0EE0FFF1F7A95E1F7880F991F38
:10052000E80FF91FEB57FD4F80818230B9F5822F1C
:1005300090E09C0155E0220F331F5A95E1F7880F98
:10054000991F280F391F27573D4F3093FB012093E8
:10055000FA0110E00FC0E091FA01F091FB01E10F08
:10056000F11D6091EC027091ED02808190E00E949B
:10057000CC0A1F5F8091CE0290E0FC0135E0EE0FC7
:10058000FF1F3A95E1F7880F991FE80FF91FEB5706
:10059000FD4F81811817F8F20E9499048DE791E0D0
:1005A0000E94F80A013061F0013018F00230A9F41D
:1005B0000EC0C7016FE771E00E94790A01E00DC02B
:1005C000C7016AE871E00E94790A02E006C0C7012B
:1005D00065E971E00E94790A00E08AE060E0A70125
:1005E0000E94020510E00E944E04C5010197F1F738
:1005F0001F5F1436C1F788E893E1F6013197F1F7F0
:100600000197D9F781CF2C989EBD0DB407FEFDCF81
:100610008EBD0DB407FEFDCF2C9A08952C989EBD7B
:100620000DB407FEFDCF3EB58EBD0DB407FEFDCF68
:100630002EB5932F80E02C9A30E0282B392BC9015E
:100640000895EA980E940303EA9A0895CF93DF93EE
:10065000A82FB0E0FD0183E0EE0FFF1F8A95E1F7C0
:10066000E056FE4F77836683FD0153E0EE0FFF1FD8
:100670005A95E1F7EC55FE4FC081D181209719F4CE
:1006800040E050E010C088819981FD0143E0EE0F09
:10069000FF1F4A95E1F7EE55FE4F4081518140958D
:1006A00050954823592333E0AA0FBB1F3A95E1F731
:1006B000FD01EE55FE4F8081918186239723A05640
:1006C000BE4F2D913C91822B932B842B952B99839C
:1006D00088830E942103DF91CF91089578941F921F
:1006E0000F920FB60F921124CF92DF92EF92FF92EA
:1006F0000F931F932F933F934F935F936F937F932A
:100700008F939F93AF93BF93EF93FF93EA980091DA
:10071000D70284E0C82E12E0D12EB2E2EB2EFF24E5
:10072000F394CCBA2C981EBC0DB407FEFDCF2C9AC6
:100730000EB407FE99C01091C9021130B9F1113001
:1007400020F0123009F085C069C0F092CC0280E040
:1007500090EB0E940E03082F0D5F0093CB02035015
:100760002091CD02822F90E0FC01A5E0EE0FFF1F4B
:10077000AA95E1F7880F991FE80FF91FEB57FD4F76
:100780008081882309F065C0F092C902822F90E031
:10079000FC0165E0EE0FFF1F6A95E1F7880F991FD6
:1007A000E80FF91FEB57FD4F0183BBCF80E090EBC3
:1007B0000E940E03282F9091CC028091CB029817B3
:1007C000C0F40227913258F4E091CD02EE9DF00181
:1007D00011243196E90FF11DEB57FD4F20838091D5
:1007E000CC02823011F40F3FA1F58F5F8093CC02D1
:1007F00098CF8091CD02282F30E0F90145E0EE0F2F
:10080000FF1F4A95E1F7220F331FE20FF31FEB574B
:10081000FD4FD08281278093CD021BC02091CC0256
:100820008091CB02281758F4E22FF0E0EE59FD4FEB
:10083000808190E02F5F2093CC02986B12C01092C1
:10084000CA0281E892E80E9403038AEA98EB0E94B8
:1008500003031092C90281E89AEC0E94030383E823
:100860009AEC0E9403035DCF0093D702EA9AFF91AE
:10087000EF91BF91AF919F918F917F916F915F9118
:100880004F913F912F911F910F91FF90EF90DF902B
:10089000CF900F900FBE0F901F9018958091C902B6
:1008A000882391F5EA9880E090E00E940E03EA9A8E
:1008B00090FF02C088EC05C08091E801882321F0F8
:1008C00081508093E80108958091CA028130E1F45B
:1008D000EA9881E092E80E940303809164028A5FB3
:1008E0008093CB021092CC0282E08093C9028AEA04
:1008F00098EB0E9403038AEA98EB0E94030381E2CB
:1009000092E80E940303EA9A0895982F8091CA0200
:10091000882311F083E00895609364029093650248
:10092000692760956093660281E08093CA0280E83F
:1009300008952091CE02822F90E0FC0145E0EE0F59
:10094000FF1F4A95E1F7880F991FE80FF91FEB5732
:10095000FD4F108281E028272093CE020895CF9387
:10096000DF932C9A249A259A279A2C9A249A2698CF
:1009700081E58CBD8DE28093620284ED80936302F9
:100980001092CD021092CE028DE294E99093D002A3
:100990008093CF0287EF94EC9093D2028093D102A0
:1009A00080E798E99093D4028093D30286ED90E893
:1009B0009093D6028093D502C0E0D0E0FE01EE0F06
:1009C000FF1FE458FF4F859194910E9403032196E5
:1009D000CC30D10599F780916900806280936900DD
:1009E00080E090E00E940E0384E08CBB81E89AECEA
:1009F0000E94030383E89AEC0E940303EA9ADF91C2
:100A0000CF9108950F931F93182F062F8F3110F059
:100A100082E012C08091CA02882311F083E00CC0EA
:100A200027E632E0C901BA01412F50E00E94700A66
:100A3000802F612F0E9485041F910F91089598B90E
:100A40001398139A88B91398139A0895149888B92B
:100A50001398139A149A0895282F30E0A901417031
:100A6000507080FD02C098E201C098E49093E902C2
:100A700021FF04C080EC98279093E90222FF0AC06E
:100A80009091E902452B11F480E401C080E88927A8
:100A90008093E90286E30E9426058091E90288B9E5
:100AA0001398139A0895AF92BF92CF92DF92EF926C
:100AB000FF920F931F938C017B016A0159018AE217
:100AC0000E942605C8010E941F0501501040C80160
:100AD0008C0D9D1D0E941F058BE20E942605C701FB
:100AE0000E941F050894E108F108C7018A0D9B1DAB
:100AF0000E941F051F910F91FF90EF90DF90CF9004
:100B0000BF90AF900895CF93DF939C01EA0180914D
:100B1000DF029091E00228173907A0F48091E102EA
:100B20009091E2026817790768F4C90141E050E04A
:100B300021E030E00E9453058CE20E942605CE01A0
:100B40000E941F05DF91CF910895982FE091F10148
:100B5000F091F2018081891719F48181861761F083
:100B6000E9EEF1E08081891749F48181861731F43B
:100B7000F093F201E093F10181E008950680F7819E
:100B8000E02D309779F780E00895CF92DF92EF92D1
:100B9000FF920F931F93CF93DF93FC016A017901BA
:100BA000141615060CF04FC0121613060CF04BC0AD
:100BB00097FF04C0C80ED91EE0E0F0E077FF04C044
:100BC000E60EF71E60E070E01C141D04E4F51E1430
:100BD0001F04CCF52091DF023091E002CF018C0D93
:100BE0009D1D2817390718F46901CE1ADF0A2091D4
:100BF000E1023091E202CB018E0D9F1D28173907CB
:100C000018F47901E61AF70A1C141D04E4F41E1402
:100C10001F04CCF4CF01A60197010E9453058CE27A
:100C20000E9426050AC0C8010E941F052196CC1506
:100C3000DD05C8F30894E108F108E114F10419F0A6
:100C4000C0E0D0E0F4CFDF91CF911F910F91FF90E2
:100C5000EF90DF90CF9008952F923F924F925F9246
:100C60006F927F928F929F92AF92BF92CF92DF92BC
:100C7000EF92FF920F931F93CF93DF932C013B01D1
:100C80005A014901C02EDD24EA01CC19DD09AE016B
:100C9000960187010E94C50514012C183D08A40C7B
:100CA000B51CC5018C199D09B301A60191010E94D3
:100CB000C505B601660D771DC201A60191010E940E
:100CC000C505860C971C8C189D08C601840D951DC2
:100CD000B401AE0196010E94C505DF91CF911F912D
:100CE0000F91FF90EF90DF90CF90BF90AF909F90CB
:100CF0008F907F906F905F904F903F902F900895CE
:100D00004F925F926F927F928F929F92AF92BF921B
:100D1000CF92DF92EF92FF920F931F93CF93DF93C7
:100D2000EC017B016A01590128018091DF02909159
:100D3000E0028C179D0710F4EC0121978C159D059E
:100D400020F46C010894C108D1088091E1029091CF
:100D5000E2028E159F0520F47C010894E108F10859
:100D60008A159B0520F45C010894A108B108CC15F4
:100D7000DD0589F4AE14BF0418F4C50157017C01E8
:100D80000894A11CB11CAE18BF08CE01B70141E008
:100D900050E0950113C0EA14FB04A1F4CC16DD0663
:100DA00018F4C6016E01EC010894C11CD11CCC1AC8
:100DB000DD0ACE01B701A60121E030E082010E94E8
:100DC000C5056FC036016C1A7D0A77FE04C07094A9
:100DD00061947108739445018E189F0897FE04C0B2
:100DE00090948194910893946814790470F5AE14EA
:100DF000BF0430F4C6016E01EC01C50157017C014E
:100E000000E010E01EC0CC16DD0618F021E030E056
:100E100002C02FEF3FEFC801B4010E94490A269F8C
:100E2000C001279F900D369F900D11248C0F9D1FA0
:100E3000B701A2010E9483050894E11CF11C060D74
:100E4000171DAE14BF04F8F62CC0CC16DD0630F426
:100E5000C6016E01EC01C50157017C0100E010E004
:100E60001DC0AE14BF0418F021E030E002C02FEF27
:100E70003FEFC801B3010E94490ACB01289FB0018E
:100E8000299F700D389F700D11246E0D7F1DCE01AE
:100E9000A2010E9483052196080D191DCC16DD06BE
:100EA00000F7DF91CF911F910F91FF90EF90DF90AE
:100EB000CF90BF90AF909F908F907F906F905F90FA
:100EC0004F90089540E451E05093E0024093DF02D8
:100ED00020EF30E03093E2022093E10280FF08C06F
:100EE0003093E0022093DF025093E2024093E1024C
:100EF0001092DC021092DB021092DE021092DD02F0
:100F00008093D9020E942C0508951F9392B188B155
:100F1000981721F098B188B1981731F485B7806897
:100F200085BF85B7806885BF8FE781B98DEF82B9AE
:100F300017B88FEF88B912981098139A159A149AC7
:100F4000169A88E28A95F1F7129A80EB94E02CE2E7
:100F500031E0F9013197F1F70197D9F78FEF87B9B0
:100F600088E20E94260581E10E94260580EB94E03C
:100F70002CE231E0F9013197F1F70197D9F784E3D9
:100F80000E94260588E30E94260583E10E9426052B
:100F900080E20E9426058AE30E94260585E588B93D
:100FA0001398139A86E30E94260588E488B913985B
:100FB000139A8CE20E94260580E090E00EC018B8DB
:100FC0001398139A18B81398139A2F5F203FB9F704
:100FD000019621E08034920711F020E0F0CF81EB00
:100FE0000E94260518B81398139A18E118B9139897
:100FF000139A83EB0E94260518B81398139A18B910
:101000001398139A89E20E9426051092DC0210922E
:10101000DB021092DE021092DD0281E08093D802A2
:101020000E94620784E08093DA028FEF9FEF909333
:10103000E4028093E3021092E6021092E5021F910F
:101040000895BF92CF92DF92EF92FF920F931F937A
:10105000CF93DF93182F2091DB023091DC02E091D7
:10106000F101F091F20150814091D802459FC001F9
:101070001124820F931F97FD5CC08181489FB02C83
:101080001124459FE02C11246091DD027091DE0255
:10109000C9014E2D50E02B2D30E00E9453058CE20B
:1010A0000E942605FF24C12EDD2440C0E091F101FD
:1010B000F091F2016091D8028F2D90E070E00E94D3
:1010C000490A83819601281B3109828190E0AC0195
:1010D000249FC001259F900D349F900D1124860FF1
:1010E000971F0480F581E02DE80FF91F049110E0AF
:1010F000C1E0D0E018C007FF05C08091E3029091E5
:10110000E40204C08091E5029091E6020E941F056E
:101110006091D802CE0170E00E945D0A892B09F42B
:10112000000F1F5F21961E1530F3F394FB1408F493
:10113000BDCFDF91CF911F910F91FF90EF90DF9086
:10114000CF90BF9008959F92AF92BF92CF92DF92BF
:10115000EF92FF920F931F93CF93DF93EC01CB019C
:10116000590168019E2CBA01A90198010E945305FA
:101170008CE20E94260520E010E0EE2428C0022F19
:101180000F5F222351F4CE010196992021F0FE0138
:10119000EC01149102C01881EC0117FF05C0809189
:1011A000E3029091E40204C08091E5029091E6028E
:1011B0000E941F05083011F400E001C0110FF394E4
:1011C000202F8F2D90E08A159B05C8F2E3948E2D79
:1011D00090E08C159D0510F4FF24F3CFDF91CF91A3
:1011E0001F910F91FF90EF90DF90CF90BF90AF9045
:1011F0009F9008959F92AF92BF92CF92DF92EF920D
:10120000FF920F931F93CF93DF93EC01CB01590112
:1012100068019E2CBA01A90198010E9453058CE235
:101220000E94260510E0EE2428C0022F0F5F222323
:1012300051F4CE010196992021F0FE01EC011491A8
:1012400002C01881EC0117FF05C08091E302909164
:10125000E40204C08091E5029091E6020E941F051D
:10126000083011F400E001C0110FF394202F8F2DEE
:1012700090E08A159B05C8F2E3948E2D90E08C15C2
:101280009D0518F420E0FF24F2CFDF91CF911F914C
:101290000F91FF90EF90DF90CF90BF90AF909F9015
:1012A00008950F931F93CF93DF938C01C091DF02BA
:1012B000D091E0022091E1023091E20280E090E0E2
:1012C00060E070E0AE010E9453058CE20E942605AA
:1012D0005091E1024091E2020CC018B91398139AA0
:1012E00008B91398139A2150304021153105A9F7F8
:1012F0002197209721F0852F942F9C01F6CFDF9125
:10130000CF911F910F9108951092DC021092DB0291
:10131000E091F101F091F2012091D8028181289FA2
:10132000900111248091DD029091DE02820F931FC3
:101330009093DE028093DD02820F931F2091E102E1
:101340003091E2022817390770F48091E5029091FC
:10135000E6020E9451091092DC021092DB02109208
:10136000DE021092DD020895E091F101F091F201A8
:101370002091D8028081289F900111248091DB0266
:101380009091DC02820F931F9093DC028093DB022A
:10139000820F931F2091DF023091E0022817390756
:1013A00010F40E9484090895CF93DF93893029F0C7
:1013B0008A30B9F50E9484093AC0C091DB02D0910D
:1013C000DC02E091F101F091F2016091D80280819C
:1013D000689FB0011124CE010E94490A009731F0A4
:1013E000C81BD90BD093DC02C093DB020E94B40966
:1013F000E091F101F091F2016091D8028081689F43
:10140000B00111248091DB029091DC020E94490A14
:10141000CB016091DA0270E00E94490A892B31F712
:1014200006C0803220F00E9421080E94B409DF919A
:10143000CF9108950E94D40980E090E008951F9311
:10144000CF93DF93162FEC0102C00E94D409112321
:1014500019F0FE01849101C0888121968823A9F7A3
:10146000DF91CF911F9108958091E7029091E8025A
:10147000892B51F48AE19AE060E070E00E94800AD2
:101480009093E8028093E7028091E7029091E8024E
:101490000895AA1BBB1B51E107C0AA1FBB1FA617BB
:1014A000B70710F0A61BB70B881F991F5A95A9F70D
:1014B00080959095BC01CD01089597FB092E0726D4
:1014C0000AD077FD04D0E5DF06D000201AF470952D
:1014D00061957F4F0895F6F7909581959F4F0895F8
:1014E000FB01DC0102C001900D9241505040D8F741
:1014F0000895FB01DC0101900D920020E1F70895B1
:101500000F931F93CF93DF938C01EB01009731F47E
:101510006115710519F420E030E038C081E090E0F9
:101520006EE070E00E942D0BFC019C01009771F1B0
:1015300080E88383209771F0D387C28781E8838313
:101540008091EA029091EB02892B21F4F093EB0257
:10155000E093EA0201151105C9F011870087838124
:10156000826083838091EC029091ED02892B71F46B
:10157000F093ED02E093EC028091EE029091EF0285
:10158000892B21F4F093EF02E093EE02C901DF9181
:10159000CF911F910F9108950F931F93CF93DF93D6
:1015A0008C01EB018B8181FF1BC082FF0DC02E815E
:1015B0003F818C819D812817390764F4E881F98186
:1015C0000193F983E88306C0E885F985802F0995A2
:1015D000892B31F48E819F8101969F838E8302C077
:1015E0000FEF1FEFC801DF91CF911F910F91089569
:1015F0000F931F93CF93DF938C01E091EC02F09156
:10160000ED02838181FF21C0C0E0D0E00DC0E091F8
:10161000EC02F091ED0220853185BF01F9010995B9
:10162000892B11F0CFEFDFEFF80181918F01882333
:1016300071F7E091EC02F091ED02208531858AE0AE
:10164000BF01F9010995892B11F0CFEFDFEFCE0132
:10165000DF91CF911F910F9108950F931F93CF9317
:10166000DF93689F8001699F100D789F100D1124F2
:10167000C8010E94490BEC01009729F060E070E07E
:10168000A8010E944E0CCE01DF91CF911F910F91C6
:101690000895CF93DF93BC018230910510F462E08E
:1016A00070E0A091F202B091F302ED01E0E0F0E011
:1016B00040E050E021C0888199818617970769F43E
:1016C0008A819B81309719F09383828304C0909321
:1016D000F3028093F202FE0134C06817790738F4F0
:1016E0004115510519F08417950708F4AC01FE0166
:1016F0008A819B819C01E9012097E9F641155105FA
:10170000A9F1CA01861B970B049708F4BA01E0E01F
:10171000F0E02AC08D919C91119784179507F9F4F8
:101720006417750781F412968D919C9113973097E9
:1017300019F09383828304C09093F3028093F202A2
:10174000FD0132964FC0CA01861B970BFD01E80FC1
:10175000F91F6193719302978D939C9343C0FD0190
:10176000828193819C01D9011097A1F68091F002AA
:101770009091F102892B41F48091F5019091F6014D
:101780009093F1028093F0024091F7015091F8019B
:101790004115510541F44DB75EB78091F301909129
:1017A000F401481B590B2091F0023091F1022417EB
:1017B0003507B0F4CA01821B930B8617970780F098
:1017C000AB014E5F5F4F8417950750F0420F531FD8
:1017D0005093F1024093F002F9016193719302C0BA
:1017E000E0E0F0E0CF01DF91CF910895CF93DF9358
:1017F000009709F450C0EC0122971B821A82A09135
:10180000F202B091F302109709F140E050E0AC17FA
:10181000BD0708F1BB83AA83FE0121913191E20F3C
:10182000F31FAE17BF0779F48D919C911197280F84
:10183000391F2E5F3F4F3983288312968D919C91DB
:1018400013979B838A834115510571F4D093F3025A
:10185000C093F20220C012968D919C911397AD0116
:10186000009711F0DC01D3CFFA01D383C283219119
:101870003191E20FF31FCE17DF0769F48881998158
:10188000280F391F2E5F3F4FFA01318320838A8151
:101890009B8193838283DF91CF910895DC0101C006
:0E18A0006D9341505040E0F70895F894FFCF4B
:1018AE00202A57656C636F6D6520746F20757365A4
:1018BE002A0000202A2A2A47726F757020204F2A8C
:1018CE002A2A00202A2A536D6172742054616C6B8F
:1018DE002A2A00737570706F7274656420627920A5
:1018EE004F4F53284F626C6976696F6E204F5329A4
:1018FE002076657273696F6E20312E302E30007037
:10190E007265737320616E79206B657920746F2018
:10191E00636F6E74696E75652E2E2E2E002E004E20
:10192E004869204E61746821230053486920536131
:10193E006D21212300484875772068616861230076
:10194E0000803000D502100000800F00D502060086
:10195E0000A0FF0F0000F40400C6FF00000002000C
:10196E0000980700D30200000098F000D302700028
:10197E0000901800CF02080000900700CF0205006B
:10198E000090E000CF02200010060808209400000E
:0A199E0000E9012000F4020000003F
:00000001FF
