S00D0000696D6167652E7372656314
S11300000C9438010C9455010C94FF050C94550183
S11300100C9455010C9455010C9455010C94550104
S11300200C9455010C9455010C9455010C945501F4
S11300300C9455010C9455010C9455010C945501E4
S11300400C9455010C9455010C9455010C945501D4
S11300500C9455010C9455010C9455010C945501C4
S11300600C9455010C9455010C9455010C945501B4
S11300700C9455010C9455010C945501000000009A
S11300800000005F00000003000300143E143E144F
S1130090242A7F2A124333086661364955225000C8
S11300A005030000001C2241000041221C0014082A
S11300B03E081408083E08080050300000080808EC
S11300C00808006060000020100804023E51494501
S11300D03E0004027F0042615149462241494936AB
S11300E01814127F1027454545393E4949493201C4
S11300F0017109073649494936264949493E0036BE
S1130100360000005636000008142241001414146E
S11301101414004122140802015109063E415955A4
S11301205E7E0909097E7F494949363E41414122A3
S11301307F4141413E7F494949417F090909013EC7
S11301404141493A7F0808087F00417F410030401F
S113015040403F7F081422417F404040407F020CD2
S1130160027F7F0204087F3E4141413E7F09090925
S1130170061E2121215E7F09090976264949493253
S113018001017F01013F4040403F1F2040201F7F6D
S11301902010207F41221C2241070870080761516A
S11301A0494543007F41000002040810200000413B
S11301B07F00040201020440404040400001020468
S11301C00020545454787F444444383844444444CC
S11301D0384444447F385454541804047E050508B4
S11301E05454543C7F0804047800447D400020406B
S11301F0443D007F1028440000417F40007C047887
S113020004787C0804047838444444387C14141476
S113021008081414147C007C080404485454542022
S113022004043F44443C4040207C1C2040201C3CAF
S11302304030403C44281028440C5050503C446406
S1130240544C44000836414100007F0000414136CF
S113025008000201020402D6800182F4A423C62C01
S113026094ABC281CAF7C4709800C800E0818200D0
S113027011241FBECFEFD0E1DEBFCDBF11E0A0E05F
S1130280B1E0E4E3FFE002C005900D92AE37B107A0
S1130290D9F711E0AEE7B1E001C01D92AC3EB10761
S11302A0E1F70E943A050C9498070C940000129808
S11302B088EE93E02CE231E0F9013197F1F70197F0
S11302C0D9F7129A88EE93E02CE231E0F9013197E4
S11302D0F1F70197D9F7149A139A159A109811986F
S11302E0169A149888E288B91398139A149A149851
S11302F081E188B91398139A149A88E592E02CE264
S113030031E0F9013197F1F70197D9F714988BECA3
S113031088B91398139A149A81E088B91398139A98
S1130320149880EC88B91398139A149A86E288B9C1
S11303301398139A88E088B91398139A149881EC47
S113034088B91398139A149A80E188B91398139A68
S1130350149885EC88B91398139A149A85E388B98C
S11303601398139A8EE388B91398139A149886E312
S113037088B91398139A149A88E488B91398139A2D
S1130380149880EB88B91398139A149A8AE488B95C
S11303901398139A149881EB88B91398139A149AA2
S11303A018B81398139A8BE188B91398139A149870
S11303B086EB88B91398139A149AEEE2F1E08191CE
S11303C088B91398139A41E0E233F407C1F71498FB
S11303D087EC88B91398139A149A85EB88B9139803
S11303E0139A149886EF88B91398139A149AEAE228
S11303F0F1E0819188B91398139A81E0ED32F807FE
S1130400C1F7149882EF88B91398139A149A18B8FC
S11304101398139A149886E288B91398139A149A25
S113042081E088B91398139A14988AE388B91398C9
S1130430139A149A85E588B91398139A149880EE40
S113044088B91398139A149AEAE1F1E0819188B972
S11304501398139A41E0E932F407C1F7149881EE36
S113046088B91398139A149AEAE0F1E0819188B953
S11304701398139A81E0E931F807C1F714988AE2D6
S113048088B91398139A149AE5E0F1E0819188B938
S11304901398139A41E0E930F407C1F714988BE2FA
S11304A088B91398139A149AE0E0F1E0819188B91D
S11304B01398139A81E0E430F807C1F7149884E3A1
S11304C088B91398139A149A149884EB88B91398DA
S11304D0139A149A18B81398139A149887EB88B936
S11304E01398139A149A87E088B91398139A149856
S11304F08CE288B91398139A149A20E030E010C063
S113050018B81398139A18B81398139A019641E0DF
S113051080349407A9F72F5F3F4F203F310519F02E
S113052080E090E0EDCF149889E288B91398139A8B
S1130530149A84EF91E02CE231E0F9013197F1F75C
S11305400197D9F7119A089585B7806885BF85B753
S1130550806885BF8FE781B98FEF87B90E94570103
S113056008959C019093730180937201149886E31B
S113057088B91398139A149A2115310571F480EFF0
S113058090E090936F0180936E0180E491E09093EA
S113059071018093700188E432C02130310571F417
S11305A080E491E090936F0180936E0180EF90E07E
S11305B0909371018093700188EE21C0223031053F
S11305C071F480EF90E090936F0180936E0180E46A
S11305D091E0909371018093700188E810C02330FA
S11305E0310581F480E491E090936F0180936E0172
S11305F080EF90E0909371018093700188E288B954
S11306001398139A14988AE288B91398139A149A2F
S113061018B81398139A18B81398139A80916E0106
S113062090916F01019798B901961398139A81508C
S113063088B91398139A14988BE288B91398139A6B
S1130640149A18B81398139A18B81398139A809197
S1130650700190917101019798B901961398139ABA
S1130660815088B91398139A0895EF92FF920F93CB
S11306701F93DF93CF93CDB7DEB728970FB6F894C7
S1130680DEBF0FBECDBFF22F2983E32F3A834B8306
S11306905C83362F6D83272F7E838F839887780121
S11306A0AB81BC81062F172F6F81788514988AE25D
S11306B088B91398139A149AE8B91398139AF8B945
S11306C01398139AB8B91398139AA8B91398139A4C
S11306D014988BE288B91398139A149A28B913982A
S11306E0139A38B91398139A78B91398139A68B966
S11306F01398139A14988CE288B91398139A149A3D
S11307002F2F3E2FC901AC010DC0F8B81398139ACE
S1130710E8B81398139A2F5F3F4F62177307A8F72F
S11307204F5F5F4FA417B50710F09801F6CF2896D6
S11307300FB6F894DEBF0FBECDBFCF91DF911F91EE
S11307400F91FF90EF900895EF92FF920F931F93F4
S1130750DF93CF93CDB7DEB728970FB6F894DEBFFB
S11307600FBECDBFF22F2983E32F3A834B835C83E3
S1130770362F6D83272F7E838F839887D8010B8133
S11307801C81E62EF72E6F81788514988AE288B949
S11307901398139A149AE8B91398139AF8B91398FA
S11307A0139A18B91398139A08B91398139A1498AA
S11307B08BE288B91398139A149A28B91398139A48
S11307C038B91398139A78B91398139A68B9139887
S11307D0139A14988CE288B91398139A149A2F2FA9
S11307E03E2FC901AC0114C011968C91119788B9A0
S11307F01398139A12968C91129788B91496139899
S1130800139A2F5F3F4F6217730770F74F5F5F4F65
S11308100417150710F09701F6CF28960FB6F89431
S1130820DEBF0FBECDBFCF91DF911F910F91FF901F
S1130830EF9008950F931F93DF93CF93CDB7DEB757
S113084028970FB6F894DEBF0FBECDBF1092750186
S113085010927401109277011092760120916E012A
S113086030916F012150304080917001909171015D
S113087001971A821982422F3C832B831E821D8288
S113088098878F8300917A0110917B0129813A81A5
S11308905C816D817E8198850E94350328960FB610
S11308A0F894DEBF0FBECDBFCF91DF911F910F91A2
S11308B008956F927F928F929F92AF92BF92CF9240
S11308C0DF92EF92FF920F931F93CF93DF93982FB2
S11308D0009174011091750124E0E22EF12CE00ED8
S11308E0F11E609076017090770180528F3508F088
S11308F09FC0E301279685E09802900111242452B9
S1130900304014988BE288B91398139A149A78B8E3
S11309101398139A68B81398139AD8B91398139A1A
S1130920C8B91398139AC0907801D0907901A09017
S11309307A01B0907B01A8019AE2892E8CE2982E6C
S113094036C0149888B81398139A149A58B91398FF
S1130950139A48B91398139A58B91398139A48B923
S11309601398139A149898B81398139A149AF9012F
S1130970B491B30191E014C0A92FAB2311F48B2DD2
S113098001C08D2D88B91398139AAA2311F48A2DC6
S113099001C08C2D88B91398139A6F5F7F4F990FFC
S11309A0C617D70748F72F5F3F4F4F5F5F4FE416D7
S11309B0F50638F614988AE288B91398139A149AAB
S11309C058B91398139A48B91398139A58B91398A5
S11309D0139A48B91398139A14988CE288B9139807
S11309E0139A149AC30107C0B8B81398139AA8B8F5
S11309F01398139A0196C817D907B0F798012A5F7C
S1130A003F4F309375012093740180916E01909152
S1130A106F012817390760F0109275011092740164
S1130A2088E090E0680E791E7092770160927601FA
S1130A30DF91CF911F910F91FF90EF90DF90CF90B6
S1130A40BF90AF909F908F907F906F9008951F9369
S1130A50CF93DF93EC0110E003C00E9459041F5FA1
S1130A60FE01E10FF11D80818823B9F7DF91CF9159
S1130A701F910895AF92BF92CF92DF92EF92FF92AF
S1130A800F931F93DF93CF93CDB7DEB727970FB69E
S1130A90F894DEBF0FBECDBF0E94A40283E090E0B5
S1130AA00E94B10283E391E00E942705DE011196C2
S1130AB0E7E6F1E087E001900D928150E1F78BE3E6
S1130AC091E00E94270588EE93E02CE231E0F901E1
S1130AD03197F1F70197D9F70E943C078BE391E036
S1130AE00E94270578948DE391E00E942705EE2467
S1130AF0FF245E010894A11CB11CBCE2CB2EB1E022
S1130B00DB2E8091840190E0FC01A5E0EE0FFF1F35
S1130B10AA95E1F7880F991FE80FF91FEB57FE4FCD
S1130B2080818230A9F581E591E00E94270500913A
S1130B30840110E015C0802F90E0FC0165E0EE0F09
S1130B40FF1F6A95E1F7880F991FE80FF91FEB570C
S1130B50FE4FE10FF11D848190E00E9427051F5F85
S1130B608091840190E0FC0145E0EE0FFF1F4A955F
S1130B70E1F7880F991FE80FF91FEB57FE4F8181AA
S1130B801817C8F28FE591E00E9427050E942607F6
S1130B900894E11CF11C88EBE8168BE0F80659F484
S1130BA083E691E00E94270587E060E0A5010E94AA
S1130BB07207EE24FF240E94DB06C6010197F1F7B9
S1130BC0A0CF2A989EBD0DB407FEFDCF8EBD0DB4F7
S1130BD007FEFDCF2A9A08952A989EBD0DB407FEFC
S1130BE0FDCF3EB58EBD0DB407FEFDCF2EB5932FC0
S1130BF080E02A9A30E0282B392BC9010895789493
S1130C001F920F920FB60F921124DF92EF92FF9270
S1130C100F931F932F933F934F935F936F937F9300
S1130C208F939F93AF93BF93EF93FF93E9980091B2
S1130C307E0112E0E12EB2E2DB2EFF24F394ECBA43
S1130C402A981EBC0DB407FEFDCF2A9A0EB407FEE7
S1130C5099C010917F011130B9F1113020F0123098
S1130C6009F085C069C0F092820180E090EB0E9497
S1130C70EC05082F0D5F009381010350209183013F
S1130C80822F90E0FC01A5E0EE0FFF1FAA95E1F78B
S1130C90880F991FE80FF91FEB57FE4F80818823B7
S1130CA009F065C0F0927F01822F90E0FC0165E0BD
S1130CB0EE0FFF1F6A95E1F7880F991FE80FF91FE0
S1130CC0EB57FE4F0183BBCF80E090EB0E94EC0515
S1130CD0282F90918201809181019817C0F40227F6
S1130CE0913258F4E0918301ED9DF0011124319685
S1130CF0E90FF11DEB57FE4F208380918201823072
S1130D0011F40F3FA1F58F5F8093820198CF8091FA
S1130D108301282F30E0F90145E0EE0FFF1F4A95CB
S1130D20E1F7220F331FE20FF31FEB57FE4FE08270
S1130D308127809383011BC02091820180918101CE
S1130D40281758F4E22FF0E0E753FE4F808190E03B
S1130D502F5F20938201986B12C01092800181E86A
S1130D6092E80E94E1058AEA98EB0E94E10510925C
S1130D707F0181E89AEC0E94E10583E89AEC0E94E5
S1130D80E1055DCF00937E01E99AFF91EF91BF9158
S1130D90AF919F918F917F916F915F914F913F910F
S1130DA02F911F910F91FF90EF90DF900F900FBE46
S1130DB00F901F90189580917F01882391F5E998F1
S1130DC080E090E00E94EC05E99A90FF02C088EC74
S1130DD005C080917C01882321F0815080937C019F
S1130DE00895809180018130E1F4E99881E092E8EE
S1130DF00E94E1058091CB018A5F8093810110926A
S1130E00820182E080937F018AEA98EB0E94E105E7
S1130E108AEA98EB0E94E10581E292E80E94E105EA
S1130E20E99A0895982F80918001882311F083E036
S1130E3008956093CB019093CC01692760956093EA
S1130E40CD0181E08093800180E8089520918401A0
S1130E50822F90E0FC0145E0EE0FFF1F4A95E1F779
S1130E60880F991FE80FF91FEB57FE4F108281E09E
S1130E702827209384010895CF93DF932A9A229AF6
S1130E80239A259A2A9A229A249881E58CBD8DE288
S1130E908093C90184ED8093CA011092830110925A
S1130EA08401C7E5D2E0FE01859194910E94E10599
S1130EB0229682E0CF36D807B1F785B7886085BF20
S1130EC080E090E00E94EC0582E08CBB81E89AEC23
S1130ED00E94E10583E89AEC0E94E105E99ADF911A
S1130EE0CF9108950F931F93182F062F8F3110F071
S1130EF082E012C080918001882311F083E00CC04D
S1130F002EEC31E0C901BA01412F50E00E948F0755
S1130F10802F612F0E9412071F910F910895FB01EA
S1130F20DC0102C001900D9241505040D8F7089561
S1070F30F894FFCF5F
S1130F340000013F00000000EF0000252705100910
S1130F443A784D05180D383A1F001F1A180A0F066F
S1130F544587320A070207050000010000000A82DF
S1130F642700004C6F6164696E67002E0052464D81
S1130F7431322050696E67706F6E672074657374C4
S1130F84006E6577207061636B65743A20220022D9
S1130F940D0A002E0D0A00666F6F62617200F00084
S1110FA44001000000000000FFFF00001000EC
S9030000FC
