:100000000C94D6010C94F3010C94F3010C9495021A
:100010000C94F3010C94F3010C94F3010C94F30190
:100020000C94F3010C94F3010C94F3010C94F30180
:100030000C94F3010C94F3010C94F3010C94F30170
:100040000C94F3010C94F3010C94F3010C94F30160
:100050000C94F3010C94F3010C94F3010C94F30150
:100060000C94F3010C94F3010C94F3010C94F30140
:100070000C94F3010C94F3010C94F301D6800182EB
:10008000F4A402C62D94ABC281CAF7C4709800C80C
:1000900000E08182020000000000000122202020F8
:1000A0000000200152505000000000015250F85052
:1000B000F85050012278A07028F02001C2C810200A
:1000C000409818016290A040A8906801622040000A
:1000D000000000011220404040201001422010107A
:1000E000102040010220A870A8200001022020F862
:1000F000202000010200000000602041020000F802
:1001000000000001020000000060600102081020F1
:1001100040800001728898A8C88870012260202061
:1001200020207001728808102040F801FA10201079
:100130000888700112305090F8101001FA80F00811
:1001400008887001324080F088887001FA08102019
:100150004040400172888870888870017288887871
:1001600008106001026060006060000102606000D1
:100170006020400112204080402010010200F80061
:10018000F800000142201008102040017288081079
:100190002000200172880868A8A8700172888888E9
:1001A000F8888801F28888F08888F0017288808059
:1001B00080887001E29088888890E001FA8080F061
:1001C0008080F801FA8080F080808001728880B899
:1001D000888878018A8888F8888888017220202099
:1001E000202070013A101010109060018A90A0C079
:1001F000A0908801828080808080F8018AD8A8A899
:10020000888888018A88C8A8988888017288888820
:1002100088887001F28888F08080800172888888E0
:10022000A8906801F28888F0A09088017A80807098
:100230000808F001FA202020202020018A888888E0
:10024000888870018A888888885020018A8888A8D0
:10025000A8A850018A885020508888018A88885030
:1002600020202001FA0810204080F8017240404010
:1002700040407001028040201008000172101010F0
:1002800010107001225088000000000102000000E0
:100290000000F80142201000000000010200700878
:1002A000788878018280B0C88888F0010200708068
:1002B000808870010A086898888878010200708830
:1002C000F8807001324840E0404040010278888860
:1002D000780870018280B0C8888888012200602078
:1002E000202070011200301010906001828090A0D8
:1002F000C0A0900162202020202070010200D0A820
:10030000A8A8A8010200B0C88888880102007088E7
:10031000888870010200F088F080800102006898EF
:10032000780808010200B0C8808080010200708057
:100330007008F0014240E0404048300102008888E7
:100340008898680102008888885020010200888807
:10035000A8A8500102008850205088010200888817
:10036000780870010200F8102040F80112202040A7
:1003700020201001222020202020200142202010B7
:1003800020204001020068900000000102000000EF
:100390000000000100505000008870000050500024
:1003A000007088000050500088A8500011241FBE23
:1003B000CFEFD0E1DEBFCDBF11E0A0E0B1E0E8ECCF
:1003C000F7E102C005900D92A03EB107D9F722E0F7
:1003D000A0EEB1E001C01D92AA3DB207E1F70E9474
:1003E00038090C94E20B0C9400008091BE029091AD
:1003F000BF020E944F081092C9021092C8021092C8
:10040000C7021092C60208950E94770682E00E94F9
:1004100034068FEF9FEF9093BF028093BE0210923D
:10042000C1021092C0020E94F5010E943A08909306
:10043000D3028093D202119A08950E9404020E946E
:10044000F50183E08093CC0280E098EF9093BF02A7
:100450008093BE020E94F50180EE97E09093C10266
:100460008093C00289E591E00E946B0A8AE791E0DF
:100470000E946B0A8BE691E00E946B0A8BE791E089
:100480000E946B0A81E08093CC028BE891E00E948D
:100490006B0A87EB91E00C946B0A2C989EBD0DB40F
:1004A00007FEFDCF8EBD0DB407FEFDCF2C9A08953B
:1004B0002C989EBD0DB407FEFDCF2EB530E0322F37
:1004C00022278EBD0DB407FEFDCF8EB52C9AA90153
:1004D000482BCA010895EA980E944D02EA9A0895AD
:1004E00098E0899FF0011124EF5FFE4F77836683C8
:1004F000A481B58182819381109749F04D915C91DF
:1005000011979C01209530952423352302C020E0CB
:1005100030E08623972340815181842B952B822BB9
:10052000932B8D939C930C946B0278941F920F9253
:100530000FB60F921124FF920F931F932F933F93A7
:100540004F935F936F937F938F939F93AF93BF93DB
:10055000CF93DF93EF93FF93EA9804E0D2E222E097
:10056000F22E11E00CBB2C981EBC0DB407FEFDCF83
:100570002C9A0EB407FE79C0C0914802C130F9F040
:1005800020F0C23009F44BC065C010934B0280E0EC
:1005900090EB0E9458028093BD0293E0980F9093D5
:1005A0004A02E0914C02DE9FF0011124EA5AFD4F0D
:1005B000908191114FC0109348028183D3CF80E086
:1005C00090EB0E94580290914B0220914A029217A0
:1005D000D0F42091BD0228272093BD02913220F053
:1005E0009F5F90934B02BECFE0914C02DE9FF001E3
:1005F0001124E95AFD4FE90FF11D8083923081F7F4
:100600002F3F41F5EDCF80914C02D89FF00111248E
:10061000EA5AFD4FF082C827C0934C021BC0E091FC
:100620004B0280914A02E81758F481E08E0F8093C4
:100630004B02F0E0E656FD4F808190E0986B12C0CF
:100640001092490281E892E80E944D028AEA98EBF2
:100650000E944D021092480281E89AEC0E944D02DD
:1006600083E89AEC0E944D027DCFEA9AFF91EF91C8
:10067000DF91CF91BF91AF919F918F917F916F91BA
:100680005F914F913F912F911F910F91FF900F908C
:100690000FBE0F901F90189580914802811132C0B3
:1006A000EA9880E090E00E945802EA9A90FF02C027
:1006B00088EC05C080910001882321F0815080934F
:1006C00000010895809149028130E1F4EA9881E0C7
:1006D00092E80E944D0280919C028A5F80934A02B8
:1006E00010924B0282E0809348028AEA98EB0E94C3
:1006F0004D028AEA98EB0E944D0281E292E80E9444
:100700004D02EA9A08959091490291110DC06093AB
:100710009C0280939D028627809580939E0281E0B3
:100720008093490280E8089583E00895CF93DF9392
:10073000C82FD62FBA018F3180F4809149028111E0
:100740000EC04C2F50E08FE992E00E94E5096C2F1B
:100750008D2FDF91CF910C94830382E001C083E061
:10076000DF91CF910895ADE4B2E09C9182E2989F31
:10077000F0011124EA5AFD4F108281E089278C9301
:100780000895CF93DF932C9A249A259A279A2C9A2E
:10079000249A269881E58CBD8DE280939A0284ED9F
:1007A00080939B0210924C0210924D028DE294E9CC
:1007B00090934F0280934E0287EF94EC90935102F6
:1007C0008093500280E798E99093530280935202FD
:1007D00086ED90E89093550280935402CCE7D0E0E8
:1007E000FE01859194910E944D02229680E0C439C9
:1007F000D807B1F78091690080628093690080E03A
:1008000090E00E94580284E08CBB81E89AEC0E9440
:100810004D0283E89AEC0E944D02EA9ADF91CF9153
:100820000895149888B91398139A149A08958CE22D
:100830000C94110488B91398139A0895CF93C82F74
:10084000892F0E941A048C2FCF910C941A04CF92F6
:10085000DF92EF92FF920F931F93CF93DF936C0180
:100860007B01EA0189012197C80FD91F8AE20E9402
:100870001104C6010E941E04CE010E941E040150F4
:1008800011090E0D1F1D8BE20E941104C7010E9469
:100890001E04C801DF91CF911F910F91FF90EF903F
:1008A000DF90CF900C941E04CF93DF93EA01209148
:1008B000C4023091C50282179307A0F42091C202AE
:1008C0003091C3026217730768F421E030E041E021
:1008D00050E00E9427040E941704CE01DF91CF91BF
:1008E0000C941E04DF91CF910895E0914901F0919D
:1008F0004A019081981303C091819617A9F0E1E510
:10090000F1E0309779F09081981308C091819613A7
:1009100005C0F0934A01E093490106C00680F781C3
:10092000E02DEFCF80E0089581E00895CF92DF922F
:10093000EF92FF920F931F93CF93DF93EA01790118
:100940001C161D060CF04DC0121613060CF049C003
:1009500097FF04C0C80FD91F80E090E077FF04C064
:10096000E60EF71E60E070E01C161D06D4F51E149E
:100970001F04BCF52091C4023091C502AC014C0F9C
:100980005D1F2417350718F4E901C81BD90B209106
:10099000C2023091C302AB014E0D5F1D2417350713
:1009A00018F47901E61AF70A1C161D06D4F41E1471
:1009B0001F04BCF49701AE010E9427040E94170493
:1009C000C12CD12CC8010E941E048FEFC81AD80A6E
:1009D000CC16DD06B9F781E0E81AF108E114F1045C
:1009E00079F7DF91CF911F910F91FF90EF90DF90FA
:1009F000CF9008952F923F924F925F926F927F9285
:100A00008F929F92AF92BF92CF92DF92EF92FF921E
:100A10000F931F93CF93DF936C015B012A011901A0
:100A2000C02FD0E03A016C1A7D0A87019E01A30114
:100A30000E94960441018C1A9D0AC2018C0D9D1DD5
:100A40009401AE01B5018C1B9D0B0E949604BE0162
:100A50006A0D7B1D9401AE01C6010E949604B5018A
:100A6000620D731D6C1B7D0B9E01A301CE018C0DCD
:100A70009D1D0E949604DF91CF911F910F91FF90D1
:100A8000EF90DF90CF90BF90AF909F908F907F902E
:100A90006F905F904F903F902F9008954F925F928C
:100AA0006F927F928F929F92AF92BF92CF92DF927E
:100AB000EF92FF920F931F93CF93DF93EC017B0193
:100AC0006A0159018091C4029091C5028C179D075B
:100AD00010F4EC0121978C159D0520F46C0121E0A8
:100AE000C21AD1088091C2029091C3028E159F054F
:100AF00020F47C0121E0E21AF1088A159B0520F41C
:100B00005C0121E0A21AB108CC15DD0581F4AE1418
:100B1000BF0428F49E2D8F2D7501A92EB82E9501A6
:100B20002F5F3F4F2E193F0941E050E012C0EA14F9
:100B3000FB04A1F4CC16DD0628F49C2F8D2FE601D2
:100B4000C92ED82EA6014F5F5F4F4C1B5D0B21E0D5
:100B500030E0B701CE010E94960475C046018C1AA0
:100B60009D0A97FE03C091948194910835016E18F7
:100B70007F0877FE03C0719461947108861497040E
:100B800090F5AE14BF0450F49E2D8F2D7501A92E43
:100B9000B82E9C2F8D2FE601C92ED82E412C512C1A
:100BA000AE14BF0408F44FC0C201B3010E94BD09D6
:100BB000CC16DD0618F42FEF3FEF02C021E030E045
:100BC000269FC001279F900D369F900D1124A801EC
:100BD000B7018C0F9D1F0E9454048FEFE81AF80A8A
:100BE000480C591CDDCFCC16DD0650F49E2D8F2D00
:100BF0007501A92EB82E9C2F8D2FE601C92ED82E57
:100C0000412C512CCC16DD06F0F0C201B4010E943B
:100C1000BD09AE14BF0418F42FEF3FEF02C021E06E
:100C200030E0269FC001279F900D369F900D112424
:100C30008E0D9F1DA801BC01CE010E945404219677
:100C4000460C571CDFCFDF91CF911F910F91FF9082
:100C5000EF90DF90CF90BF90AF909F908F907F905C
:100C60006F905F904F90089520E431E03093C5027B
:100C70002093C40240EF50E05093C3024093C2025D
:100C8000682F617080FF08C05093C5024093C40272
:100C90003093C3022093C2021092C9021092C8027C
:100CA0001092C7021092C6028093CB02662311F005
:100CB00028E401C028E281FD03C02093CF0204C0D4
:100CC00090EC92279093CF0282FF0AC09091CF02BE
:100CD000662311F080E801C080E489278093CF0269
:100CE00086E30E9411048091CF020C941A041F9392
:100CF000CF93DF9392B188B1981709F48CC098B163
:100D000088B1981709F487C08FE781B98DEF82B950
:100D100017B88FEF88B912981098139A159A149AE9
:100D2000169A28E22A95F1F7129A8FEF94E624E0BA
:100D3000815090402040E1F700C000008FEF87B95C
:100D400088E20E94110481E10E9411048FEF94E671
:100D500024E0815090402040E1F700C0000084E38F
:100D60000E94110488E30E94110483E10E9411048F
:100D700080E20E9411048AE30E94110485E50E942A
:100D80001A0486E30E94110488E40E941A048CE28B
:100D90000E941104C0E4D1E010EF80E00E941A0428
:100DA00080E00E941A041150C1F721972097A1F703
:100DB00081EB0E94110480E00E941A0488E10E94E5
:100DC0001A0483EB0E94110480E00E941A0488E157
:100DD0000E941A0489E20E9411041092C902109222
:100DE000C8021092C7021092C60281E08093CC0222
:100DF0000E94340684E08093CA028FEF9FEF9093A5
:100E0000C1028093C0021092BF021092BE02DF9115
:100E1000CF911F91089585B7806885BF85B7806899
:100E200085BF72CFCF92DF92EF92FF920F931F9305
:100E3000CF93DF93082FE091C802F091C902A091EF
:100E40004901B0914A01EC909091CC029F01E99E3A
:100E5000200D311D112437FD54C01196FC909F9D2B
:100E6000F02C11249E9DE02C11242F2D30E04E2DCE
:100E700050E06091C6027091C702CF010E94270422
:100E80000E941704D12C10E0DF14D9F1E091490140
:100E9000F0914A016091CC028D2D0E94B10993819D
:100EA000A801491B51099281949F9001959F300D93
:100EB0001124280F311D0480F581E02DE20FF31F6E
:100EC000C490C1E0D0E08C2F81508E15C0F4C7FED5
:100ED00005C08091C0029091C10204C08091BE0201
:100EE0009091BF020E941E046091CC0270E0CE017E
:100EF0000E94D109892B09F4CC0C2196E4CFD3941C
:100F0000C3CFDF91CF911F910F91FF90EF90DF90B2
:100F1000CF9008959F92AF92BF92CF92DF92EF92BF
:100F2000FF920F931F93CF93DF93EC01CB01BA0194
:100F300069019801A6010E9427040E941704A12CB0
:100F4000F12C20E08A2D90E08017910778F5B12CE4
:100F50008B2D90E08C159D0538F599249394920E75
:100F600021110CC0CE010196EE2031F0282FFE0198
:100F7000F490C22FD92F02C0F880EC01F7FE05C013
:100F80008091C0029091C10204C08091BE029091F4
:100F9000BF020E941E04F8E09F1611F0FF0C01C072
:100FA000912CB394292DD4CFA394CCCFDF91CF91A2
:100FB0001F910F91FF90EF90DF90CF90BF90AF9077
:100FC0009F9008959F92AF92BF92CF92DF92EF923F
:100FD000FF920F931F93CF93DF93EC01CB01BA01E4
:100FE00069019801A6010E9427040E941704A12C00
:100FF000F12C8A2D90E08017910780F5B12C20E02C
:101000008B2D90E08C159D0538F599249394920EC4
:1010100021110CC0CE010196EE2031F0282FFE01E7
:10102000F490C22FD92F02C0F880EC01F7FE05C062
:101030008091C0029091C10204C08091BE02909143
:10104000BF020E941E04F8E09F1611F0FF0C01C0C1
:10105000912CB394292DD4CFA394CBCFDF91CF91F2
:101060001F910F91FF90EF90DF90CF90BF90AF90C6
:101070009F9008958091CD029091CE02892B51F4DA
:1010800060E070E083E399E00E94EE099093CE0265
:101090008093CD028091CD029091CE020895EF927F
:1010A000FF920F931F93CF93DF93F82EE92E0091B9
:1010B000C4021091C5022091C2023091C302A8015E
:1010C00060E070E080E090E00E9427040E94170436
:1010D000E801209791F00091C2021091C30201151E
:1010E000110549F08E2D0E941A048F2D0E941A04BA
:1010F00001501109F4CF2197ECCFDF91CF911F91CF
:101100000F91FF90EF9008951092C9021092C802BB
:10111000E0914901F0914A0121818091CC02289F00
:10112000900111248091C6029091C702820F931FF3
:101130009093C7028093C602820F931F4091C20210
:101140005091C3024817590770F48091BE029091E4
:10115000BF020E944F081092C9021092C80210925A
:10116000C7021092C6020895E0914901F0914A0128
:1011700020818091CC02289F900111248091C80287
:101180009091C902820F931F9093C9028093C80265
:10119000820F931F4091C4025091C502481759070E
:1011A00010F40C9484080895893021F08A30B1F548
:1011B0000C9484082091C8023091C902E091490141
:1011C000F0914A0160818091CC02689FB0011124A6
:1011D000C9010E94BD09009731F0281B390B3093DB
:1011E000C9022093C8020E94B408E0914901F0911D
:1011F0004A0160818091CC02689FB00111248091E6
:10120000C8029091C9020E94BD09CB016091CA0237
:1012100070E00E94BD09892B31F70895803220F0DB
:101220000E9412070C94B40808950F931F93CF9354
:10123000DF931F92CDB7DEB7FC01662311F08491D6
:1012400001C080818F010F5F1F4F882331F06983B8
:101250000E94D408F8016981F0CF0F90DF91CF91FF
:101260001F910F9108950E94D40880E090E00895A6
:10127000CF93DF93CDB7DEB72A970FB6F894DEBFD2
:101280000FBECDBF0E941D022FE789EA93E02150D7
:1012900080409040E1F700C000000E94C1032FE7AA
:1012A00089EA93E0215080409040E1F700C00000BF
:1012B0008AE0E5EDF1E0DE01119601900D928A954C
:1012C000E1F7789402E280914D02089FC001112459
:1012D000FC01EA5AFD4F2081223019F5865A9D4FB4
:1012E000909347028093460210E0E0914D020E9FDA
:1012F000F0011124EA5AFD4F8181181780F46091A2
:10130000D2027091D302E0914602F0914702E10FC0
:10131000F11D808190E00E94390A1F5FE6CF0E9494
:10132000B30383ED91E00E946B0AAE014F5F5F4F04
:1013300060E08AE00E94960314E60E944C038BED65
:1013400095E00197F1F700C000001150B1F79FE759
:101350002FE482E1915020408040E1F700C000007E
:10136000B2CF991B79E004C0991F961708F0961B1D
:10137000881F7A95C9F780950895AA1BBB1B51E178
:1013800007C0AA1FBB1FA617B70710F0A61BB70BF5
:10139000881F991F5A95A9F780959095BC01CD019A
:1013A000089597FB072E16F4009407D077FD09D017
:1013B0000E94BD0907FC05D03EF4909581959F4F92
:1013C0000895709561957F4F0895FB01DC0102C07F
:1013D00001900D9241505040D8F708950F931F93FC
:1013E000CF93DF93EC018B01009731F46115710508
:1013F00019F480E090E038C06EE070E081E090E0A9
:101400000E94980AFC010097A1F380E883830115EC
:10141000110571F01387028781E883838091D002E0
:101420009091D102892B21F4F093D102E093D00264
:101430002097C9F0D187C0878381826083838091A0
:10144000D2029091D302892B71F4F093D302E093EE
:10145000D2028091D4029091D502892B21F4F0938D
:10146000D502E093D402CF01DF91CF911F910F916C
:1014700008950F931F93CF93DF93182F092FEB013C
:101480008B8181FD03C08FEF9FEF20C082FF10C0D2
:101490004E815F812C813D81421753077CF4E881A6
:1014A000F9819F012F5F3F4F39832883108306C046
:1014B000E885F985812F0995892B29F72E813F81B0
:1014C0002F5F3F4F3F832E83812F902FDF91CF914E
:1014D0001F910F9108950F931F93CF93DF93E09186
:1014E000D202F091D302238121FF1BC0EC0100E066
:1014F00010E089916091D2027091D302DB011896BD
:10150000ED91FC911997882331F00995892B89F386
:101510000FEF1FEFEECF8AE00995892B11F4C80178
:1015200002C08FEF9FEFDF91CF911F910F91089530
:101530000F931F93CF93DF93869F8001879F100D9A
:10154000969F100D1124C8010E94B40AEC01009767
:1015500029F0A80160E070E00E94DB0BCE01DF9172
:10156000CF911F910F910895CF93DF938230910512
:1015700010F482E090E0E091D802F091D90220E0EE
:1015800030E0A0E0B0E0309739F140815181481758
:101590005907B8F04817590771F482819381109761
:1015A00029F013969C938E9312972CC09093D90296
:1015B0008093D80227C02115310531F04217530717
:1015C00018F0A901DB0101C0EF019A01BD01DF01A3
:1015D0000280F381E02DD7CF21153105F9F0281BCA
:1015E000390B2430310580F48A819B8161157105A6
:1015F00021F0FB019383828304C09093D9028093EE
:10160000D802FE01329644C0FE01E20FF31F81931F
:10161000919322503109398328833AC02091D60210
:101620003091D702232B41F420914D0130914E018E
:101630003093D7022093D60220914B0130914C0178
:101640002115310541F42DB73EB740914F0150911E
:101650005001241B350BE091D602F091D702E2171E
:10166000F307A0F42E1B3F0B2817390778F0AC01C5
:101670004E5F5F4F2417350748F04E0F5F1F5093A2
:10168000D7024093D6028193919302C0E0E0F0E04C
:10169000CF01DF91CF910895CF93DF93009709F4A5
:1016A00087C0FC01329713821282C091D802D09178
:1016B000D902209781F420813181280F391F809130
:1016C000D6029091D7028217930779F5F093D7024B
:1016D000E093D6026DC0DE0120E030E0AE17BF0718
:1016E00050F412964D915C9113979D01411551054F
:1016F00009F1DA01F3CFB383A28340815181840FD2
:10170000951F8A179B0771F48D919C911197840FF7
:10171000951F02969183808312968D919C911397C9
:10172000938382832115310529F4F093D902E09344
:10173000D8023EC0D9011396FC93EE9312974D91B7
:101740005D91A40FB51FEA17FB0779F480819181A1
:10175000840F951F0296D90111969C938E938281D6
:10176000938113969C938E931297E0E0F0E08A8128
:101770009B81009719F0FE01EC01F9CFCE01029692
:1017800028813981820F931F2091D6023091D70290
:101790002817390769F4309729F41092D90210926A
:1017A000D80202C013821282D093D702C093D6020D
:1017B000DF91CF910895DC0101C06D9341505040FD
:0817C000E0F70895F894FFCF53
:1017C80010008030005402100000800F0054020600
:1017D8000000A0FF0F0000F40400C6FF0000000294
:1017E8000000980700520200000098F000520270B2
:1017F80000009018004E020800009007004E0205F5
:10180800000090E0004E02200051010000DA0220A2
:10181800000608082094000000202A57656C636FB2
:101828006D6520746F207573652A00202A2A2A475F
:10183800726F757020204F2A2A2A00202A2A536D99
:101848006172742054616C6B2A2A00737570706F12
:1018580072746564206279204F4F53284F626C6917
:1018680076696F6E204F53292076657273696F6EA3
:1018780020312E302E3000707265737320616E79BE
:10188800206B657920746F20636F6E74696E75655F
:101898002E2E2E2E00636F6E6E65637465640000D5
:00000001FF
