:100000000C94D6010C94F1010C94F1010C9413039F
:100010000C94F1010C94F1010C94F1010C94F10198
:100020000C94F1010C94F1010C94F1010C94F10188
:100030000C94F1010C94F1010C94F1010C94F10178
:100040000C94F1010C94F1010C94F1010C94F10168
:100050000C94F1010C94F1010C94F1010C94F10158
:100060000C94F1010C94F1010C94F1010C94F10148
:100070000C94F1010C94F1010C94F101D6800182F1
:10008000F4A402C62D94ABC281CAF7C4709800C80C
:1000900000E08182020000000000000122202020F8
:1000A0000000200152505000000000015250F85052
:1000B000F85050012278A07028F02001C2C810200A
:1000C000409818016290A040A8906801622040000A
:1000D000000000011220404040201001422010107A
:1000E000102040010220A870A8200001022020F862
:1000F000202000010200000000602041020000F802
:1001000000000001020000000060600102081020F1
:1001100040800001728898A8C88870012260202061
:1001200020207001728808102040F801FA10201079
:100130000888700112305090F8101001FA80F00811
:1001400008887001324080F088887001FA08102019
:100150004040400172888870888870017288887871
:1001600008106001026060006060000102606000D1
:100170006020400112204080402010010200F80061
:10018000F800000142201008102040017288081079
:100190002000200172880868A8A8700172888888E9
:1001A000F8888801F28888F08888F0017288808059
:1001B00080887001E29088888890E001FA8080F061
:1001C0008080F801FA8080F080808001728880B899
:1001D000888878018A8888F8888888017220202099
:1001E000202070013A101010109060018A90A0C079
:1001F000A0908801828080808080F8018AD8A8A899
:10020000888888018A88C8A8988888017288888820
:1002100088887001F28888F08080800172888888E0
:10022000A8906801F28888F0A09088017A80807098
:100230000808F001FA202020202020018A888888E0
:10024000888870018A888888885020018A8888A8D0
:10025000A8A850018A885020508888018A88885030
:1002600020202001FA0810204080F8017240404010
:1002700040407001028040201008000172101010F0
:1002800010107001225088000000000102000000E0
:100290000000F80142201000000000010200700878
:1002A000788878018280B0C88888F0010200708068
:1002B000808870010A086898888878010200708830
:1002C000F8807001324840E0404040010278888860
:1002D000780870018280B0C8888888012200602078
:1002E000202070011200301010906001828090A0D8
:1002F000C0A0900162202020202070010200D0A820
:10030000A8A8A8010200B0C88888880102007088E7
:10031000888870010200F088F080800102006898EF
:10032000780808010200B0C8808080010200708057
:100330007008F0014240E0404048300102008888E7
:100340008898680102008888885020010200888807
:10035000A8A8500102008850205088010200888817
:10036000780870010200F8102040F80112202040A7
:1003700020201001222020202020200142202010B7
:1003800020204001020068900000000102000000EF
:100390000000000100505000008870000050500024
:1003A000007088000050500088A8500011241FBE23
:1003B000CFEFD0E1DEBFCDBF11E0A0E0B1E0E0EBD8
:1003C000F7E102C005900D92A23EB107D9F712E005
:1003D000A2EEB1E001C01D92AC3DB107E1F70C9473
:1003E0004C020C9400008091CD029091CE020E94AC
:1003F000FC071092C4021092C3021092C60210921F
:10040000C50208950E94310682E00E940E068FEF19
:100410009FEF9093CE028093CD021092CC02109267
:10042000CB020E94F3010E94E5089093D5028093CD
:10043000D402119A08950E9402020E94F30183E0FF
:100440008093C00280E098EF9093CE028093CD021B
:100450000E94F30180EE97E09093CC028093CB0250
:1004600080E091E00E94620A82E191E00E94620ACB
:1004700083E191E00E94620A83E291E00E94620AB5
:1004800081E08093C00283E391E00E94620A8FE5DD
:1004900091E00E94620A08950F931F93CF93DF9318
:1004A000CDB7DEB72C970FB6F894DEBF0FBECDBF29
:1004B0000E941B0280E090E0FC013197F1F79C87DD
:1004C0008B870E943F048B859C850197F1F7DE01A5
:1004D0001196EFE7F1E08AE001900D928150E1F78B
:1004E000789480914F02992722E230E0A901849FFD
:1004F0009001859F300D949F300D1124F901E85A29
:10050000FD4F8081823071F5C901845A9D4F9093CF
:10051000E3018093E20100E010E00EC06091D4029C
:100520007091D502E091E201F091E301E40FF11D39
:10053000808199270E94350A402F0F5F1F4F8091BD
:100540004F02992722E230E0829FF001839FF00D55
:10055000929FF00D1124E85AFD4F81814817F0F267
:100560000E9431048DE791E00E94620AAE014F5F64
:100570005F4F60E08AE00E94140410E00E94CA030A
:1005800080E08A95F1F71F5F1436C1F780E090E0B4
:100590000197F1F7A6CF2C989EBD0DB407FEFDCFB5
:1005A0008EBD0DB407FEFDCF2C9A08952C989EBDEC
:1005B0000DB407FEFDCF2EB530E0322F22278EBDC1
:1005C0000DB407FEFDCF8EB52C9AA901482BCA01A8
:1005D0000895EA980E94CB02EA9A089598E0899FCC
:1005E000F0011124E657FE4F77836683A481B5811D
:1005F00082819381109749F04D915C9111979C01F4
:10060000209530952423352302C020E030E0862356
:10061000972340815181842B952B822B932B8D9393
:100620009C930C94E90278941F920F920FB60F924C
:100630001124FF920F931F932F933F934F935F9338
:100640006F937F938F939F93AF93BF93CF93DF93DA
:10065000EF93FF93EA9804E0D2E222E0F22E11E059
:100660000CBB2C981EBC0DB407FEFDCF2C9A0EB40B
:1006700007FE79C0C0914A02C130F9F020F0C230C3
:1006800009F44BC065C010934D0280E090EB0E94CE
:10069000D6028093BF0293E0980F90934C02E091B2
:1006A0004E02DE9FF0011124E85AFD4F9081911116
:1006B0004FC010934A028183D3CF80E090EB0E9419
:1006C000D60290914D0220914C029217D0F42091C5
:1006D000BF0228272093BF02913220F09F5F9093A2
:1006E0004D02BECFE0914E02DE9FF0011124E75A89
:1006F000FD4FE90FF11D8083923081F72F3F41F5C7
:10070000EDCF80914E02D89FF0011124E85AFD4FA1
:10071000F082C827C0934E021BC0E0914D02809129
:100720004C02E81758F481E08E0F80934D02F0E000
:10073000E456FD4F808190E0986B12C010924B02FE
:1007400081E892E80E94CB028AEA98EB0E94CB02F1
:1007500010924A0281E89AEC0E94CB0283E89AEC5C
:100760000E94CB027DCFEA9AFF91EF91DF91CF916A
:10077000BF91AF919F918F917F916F915F914F91B9
:100780003F912F911F910F91FF900F900FBE0F90EF
:100790001F90189580914A02811132C0EA9880E03A
:1007A00090E00E94D602EA9A90FF02C088EC05C051
:1007B00080918901882321F08150809389010895D7
:1007C00080914B028130E1F4EA9881E092E80E9446
:1007D000CB0280919E028A5F80934C0210924D0260
:1007E00082E080934A028AEA98EB0E94CB028AEA6E
:1007F00098EB0E94CB0281E292E80E94CB02EA9A37
:10080000089590914B0291110DC060939E028093C8
:100810009F02862780958093A00281E080934B02FF
:1008200080E8089583E00895CF93DF93C82FD62FF3
:10083000BA018F3180F480914B0281110EC04C2F90
:1008400050E081EA92E00E94DC096C2F8D2FDF914D
:10085000CF910C94010482E001C083E0DF91CF913D
:100860000895AFE4B2E09C9182E2989FF0011124D8
:10087000E85AFD4F108281E089278C930895CF9329
:10088000DF932C9A249A259A279A2C9A249A2698B0
:1008900081E58CBD8DE280939C0284ED80939D0266
:1008A00010924E0210924F028DE294E99093510201
:1008B0008093500287EF94EC9093530280935202FE
:1008C00080E798E9909355028093540286ED90E872
:1008D0009093570280935602CCE7D0E0FE018591B9
:1008E00094910E94CB02229680E0C439D807B1F7D8
:1008F0008091690080628093690080E090E00E94AE
:10090000D60284E08CBB81E89AEC0E94CB0283E89B
:100910009AEC0E94CB02EA9ADF91CF910895149845
:1009200088B91398139A149A08958CE20E948F0440
:10093000089588B91398139A0895282F3327C90169
:1009400081709070482F882311F498E201C098E4D8
:100950009093D10221FF04C080EC98279093D1029C
:1009600022FF0AC08091D102442311F490E401C017
:1009700090E889278093D10286E30E948F048091BA
:10098000D1020E94990408950E94990408950F933A
:100990001F938C01812F99270E94C404802F0E94ED
:1009A000C4041F910F910895AF92BF92CF92DF922E
:1009B000EF92FF920F931F938C017B016A01590103
:1009C0008AE20E948F04C8010E94C7040C0D1D1DFD
:1009D000C80101970E94C7048BE20E948F04C701DF
:1009E0000E94C704EA0CFB1CC70101970E94C704C0
:1009F0001F910F91FF90EF90DF90CF90BF90AF903D
:100A00000895CF93DF93FC01EA018091C702909192
:100A1000C802E817F90798F48091C9029091CA02B8
:100A20006817790760F421E030E041E050E0CF0141
:100A30000E94D4040E949504CE010E94C704DF9155
:100A4000CF910895E091DA01F091DB01482F55270D
:100A5000808199278417950779F481819927262F1A
:100A600033278217930741F404C0F093DB01E0932E
:100A7000DA0181E090E00895E2EDF1E0262F3327DE
:100A8000808199278417950729F4818199278217F6
:100A9000930759F30680F781E02D309789F780E0BE
:100AA00090E00895CF92DF92EF92FF920F931F9301
:100AB000CF93DF93FC016A017901141615060CF03F
:100AC00050C0121613060CF04CC097FF04C0C80E9D
:100AD000D91EE0E0F0E077FF04C0E60EF71E60E00C
:100AE00070E01C141D04ECF51E141F04D4F52091B5
:100AF000C7023091C802CF018C0D9D1D2817390700
:100B000018F46901CE1ADF0A2091C9023091CA0295
:100B1000CB018E0D9F1D2817390718F47901E61AAD
:100B2000F70A1C141D04ECF41E141F04D4F49701DE
:100B3000A601CF010E94D4040E94950407C0C801F9
:100B40000E94C7042196CC15DD05C9F70894E10879
:100B5000F1088FEFE8168FEFF80619F0C0E0D0E04B
:100B6000F2CFDF91CF911F910F91FF90EF90DF9027
:100B7000CF9008952F923F924F925F926F927F9203
:100B80008F929F92AF92BF92CF92DF92EF92FF929D
:100B90000F931F93CF93DF932C015B014A0119013F
:100BA000C02EDD24EA01CC19DD0987019601AE01D2
:100BB0000E94520531016C187D08840C951C93012C
:100BC000A601B501C4018C199D090E945205B50109
:100BD0006C0D7D1D9301A601C2010E945205A20C5D
:100BE000B31CAC18BD089601AE01B501C2018C0D55
:100BF0009D1D0E945205DF91CF911F910F91FF9093
:100C0000EF90DF90CF90BF90AF909F908F907F90AC
:100C10006F905F904F903F902F90089540E451E087
:100C20005093C8024093C70220EF30E03093CA02CD
:100C30002093C90280FF08C03093C8022093C702E6
:100C40005093CA024093C9021092C4021092C30288
:100C50001092C6021092C5028093C1020E949D04A8
:100C600008950F931F93CF93DF9392B188B1981794
:100C700021F098B188B1981731F485B7806885BFA5
:100C800085B7806885BF8FE781B98DEF82B917B8C6
:100C90009FEF98B912981098139A159A149A169A69
:100CA00088E28A95F1F7129A00E010E0F801319796
:100CB000F1F797B988E20E948F0481E10E948F04C6
:100CC000C8010197F1F784E30E948F0488E30E9432
:100CD0008F0483E10E948F0480E20E948F048AE3E4
:100CE0000E948F0485E50E94990486E30E948F0488
:100CF00088E40E9499048CE20E948F04C0E0D0E056
:100D00000EC080E00E94990480E00E9499040F5F69
:100D1000003FB9F7219691E0C034D90711F000E007
:100D2000F0CF81EB0E948F0480E00E94990488E15B
:100D30000E94990483EB0E948F0480E00E94990432
:100D400088E10E94990489E20E948F041092C402F3
:100D50001092C3021092C6021092C50281E08093E5
:100D6000C0020E940E0684E08093C2028FEF9FEFC4
:100D70009093CC028093CB021092CE021092CD02BF
:100D8000DF91CF911F910F910895CF92DF92EF9253
:100D9000FF920F931F93CF93DF93C82EA091C302AE
:100DA000B091C402E091DA01F091DB012081409121
:100DB000C002249FC00111248A0F9B1F97FD58C0B9
:100DC0008181489FD02C1124249FE02C11242D2DAB
:100DD00033274E2D55276091C5027091C602CD0173
:100DE0000E94D4040E949504FF243FC0A091DA0120
:100DF000B091DB012C2D3327ED018B81281B3109AC
:100E00008A819927289FF001299FF00D389FF00DC6
:100E100011248C819D81E80FF91F6091C002772712
:100E20008F2D99270E94B10BE60FF71F149100E058
:100E300019C017FF05C08091CB029091CC0204C06D
:100E40008091CD029091CE020E94C704802F9927F5
:100E50006091C002772701960E94C50B892B09F487
:100E6000110F0F5F0E1529F7F394FD1409F0BECF93
:100E7000DF91CF911F910F91FF90EF90DF90CF9076
:100E800008957F928F929F92AF92BF92CF92DF92FE
:100E9000EF92FF920F931F93CF93DF936C01CB01DF
:100EA000BA01490158017E2C9801A4010E94D40482
:100EB0000E949504EE24FF2400E010E02AC0E39491
:100EC00081E0E81659F4C6010196772021F0F60179
:100ED0006C01F49003C0F601F0806C01F7FE05C0D0
:100EE0008091CB029091CC0204C08091CD02909170
:100EF000CE020E94C704F8E0EF1611F4EE2401C000
:100F0000FF0C21968C2F992788159905C0F20F5F49
:100F10001F4F802F99278A159B0518F4C0E0D0E059
:100F2000F1CFDF91CF911F910F91FF90EF90DF9064
:100F3000CF90BF90AF909F908F907F9008957F92B9
:100F40008F929F92AF92BF92CF92DF92EF92FF92D9
:100F50000F931F93CF93DF936C01CB01BA0149012B
:100F600058017E2C9801A4010E94D4040E9495048B
:100F700000E0EE24FF2429C01F5F113059F4C601A0
:100F80000196772021F0F6016C01049103C0F6016F
:100F900000816C0107FF05C08091CB029091CC02CB
:100FA00004C08091CD029091CE020E94C7041830F7
:100FB00011F410E001C0000F21968C2F992788159D
:100FC0009905D0F20894E11CF11C8E2D99278A1501
:100FD0009B0520F410E0C0E0D0E0EFCFDF91CF918F
:100FE0001F910F91FF90EF90DF90CF90BF90AF9047
:100FF0009F908F907F900895EF92FF920F931F9391
:10100000CF93DF93292F3327E22EF82E0091C702CA
:101010001091C8022091C9023091CA02A80160E073
:1010200070E080E090E00E94D4040E94950410C01B
:10103000C091C902D091CA0206C08E2D0E949904A7
:101040008F2D0E94990421978FEFCF3FD807A9F7E2
:10105000015010408FEF0F3F180751F7DF91CF91EC
:101060001F910F91FF90EF9008951092C40210927B
:10107000C302E091DA01F091DB018091C00221818D
:10108000289F900111248091C5029091C602820F81
:10109000931F9093C6028093C502820F931F2091E5
:1010A000C9023091CA022817390770F48091CD0225
:1010B0009091CE020E94FC071092C4021092C302CB
:1010C0001092C6021092C5020895E091DA01F091E3
:1010D000DB018091C0022081289F90011124809122
:1010E000C3029091C402820F931F9093C402809315
:1010F000C302820F931F2091C7023091C8022817A4
:10110000390710F40E9435080895893029F08A3093
:10111000B9F50E94350808952091C3023091C402A8
:10112000E091DA01F091DB0160818091C002689F5B
:10113000B0011124C9010E94B10B009731F0281BA6
:10114000390B3093C4022093C3020E946508E091DA
:10115000DA01F091DB0160818091C002689FB001EB
:1011600011248091C3029091C4020E94B10BCB0163
:101170006091C20277270E94B10B892B39F0E5CF2D
:10118000803220F00E94C5060E94650808950E94E2
:10119000850880E090E008951F93CF93DF93EC01E2
:1011A000162F02C00E9485089E012F5F3F4F11231A
:1011B00021F0FE01E901849102C08881E9018823C0
:1011C00089F7DF91CF911F9108958091CF0290917F
:1011D000D002892B51F460E070E087EC98E00E9427
:1011E000E5099093D0028093CF028091CF02909135
:1011F000D00208954F925F926F927F928F929F924A
:10120000AF92BF92CF92DF92EF92FF920F931F9314
:10121000CF93DF93EC017B015A0169012801809192
:10122000C7029091C8028C179D0710F4EC0121971A
:101230008A159B0520F45C010894A108B1088091EF
:10124000C9029091CA028E159F0520F47C01089472
:10125000E108F1088C159D0520F46C010894C10883
:10126000D108CA15DB0591F4CE14DF0418F4C601C9
:1012700067017C01CE18DF080894C11CD11C8201D3
:10128000960141E050E0B701C50114C0EC14FD0423
:10129000A1F4AC16BD0618F4C5015E01EC01AC1A50
:1012A000BD0A0894A11CB11C820121E030E0A50117
:1012B000B701CE010E9452056EC045018C1A9D0AED
:1012C00097FE04C0909481949108939486010E191E
:1012D0001F0917FF03C0109501951F4F8016910637
:1012E00070F5CE14DF0430F4C5015E01EC01C601D7
:1012F00067017C01662477241EC0AC16BD0618F079
:1013000021E030E002C02FEF3FEFC301B8010E949F
:10131000B10B629FC001639F900D729F900D1124CD
:10132000A201B7018C0F9D1F0E9401050894E11CCA
:10133000F11C680C791CCE14DF04F8F62CC0AC1636
:10134000BD0630F4C5015E01EC01C60167017C01F8
:10135000662477241DC0CE14DF0418F021E030E0AD
:1013600002C02FEF3FEFC301B4010E94B10BCB01CC
:10137000829FB001839F700D929F700D11246E0D9E
:101380007F1DA201CE010E9401052196600E711EF3
:10139000AC16BD0600F7DF91CF911F910F91FF9022
:1013A000EF90DF90CF90BF90AF909F908F907F9005
:1013B0006F905F904F900895FB01DC0102C0019097
:1013C0000D9241505040D8F70895EF92FF920F933D
:1013D0001F93CF93DF938C017B01892B11F4672B33
:1013E000D1F16EE070E081E090E00E94950AFC018E
:1013F000009789F1DC0180E88383E114F10471F046
:10140000F386E28681E883838091D2029091D302B1
:10141000892B21F4F093D302E093D2020115110538
:10142000E1F0118700878381826083838091D402F9
:101430009091D502892B89F4F093D502E093D402E0
:101440008091D6029091D702892B39F4F093D7027C
:10145000E093D60202C0A0E0B0E0CD01DF91CF91D1
:101460001F910F91FF90EF9008950F931F93CF93CB
:10147000DF938C01EB018B81992781FF1BC082FFD9
:101480000DC02E813F818C819D812817390764F41E
:10149000E881F9810193F983E88306C0E885F9853D
:1014A000802F0995892B31F48E819F8101969F832E
:1014B0008E8302C00FEF1FEFC801DF91CF911F9104
:1014C0000F9108950F931F93CF93DF938C01E091B9
:1014D000D402F091D502838181FF1FC0C0E0D0E02B
:1014E0000AC0FD0120853185BD01F9010995892BCF
:1014F00011F0CFEFDFEFF80181918F01A091D402BD
:10150000B091D502882369F7FD0120853185BD01A1
:101510008AE0F9010995892B11F0CFEFDFEFCE01B9
:10152000DF91CF911F910F9108950F931F93CF9348
:10153000DF93869F8001879F100D969F100D1124C9
:10154000C8010E94B10AEC01009729F0A80160E0EF
:1015500070E00E94AA0BCE01DF91CF911F910F91F5
:101560000895CF93DF93AC01029710F442E050E06E
:10157000A091DA02B091DB02FD01C0E0D0E020E0F2
:1015800030E020C0808191818417950769F48281C1
:101590009381209719F09B838A8304C09093DB0288
:1015A0008093DA02CF0132C04817590738F4211569
:1015B000310519F08217930708F49C01EF010280AE
:1015C000F381E02D3097F1F62115310589F1C9013C
:1015D000841B950B049708F4A901E0E0F0E026C015
:1015E0008D919C91119782179307E9F44817590739
:1015F00079F4ED018A819B81309719F0938382837E
:1016000004C09093DB028093DA02CD01029649C0B8
:10161000841B950BFD01E80FF91F4193519302972D
:101620008D939C933AC0FD01A281B3811097C1F6BE
:101630008091D8029091D902892B41F48091DE01EA
:101640009091DF019093D9028093D8022091E0011C
:101650003091E1012115310541F42DB73EB780915C
:10166000DC019091DD01281B390BE091D802F0914B
:10167000D9022E1B3F0B2417350788F0CA010296AA
:101680002817390760F0CF01840F951F02969093B9
:10169000D9028093D80241935193CF0102C080E0D8
:1016A00090E0DF91CF910895CF93DF93009709F4F5
:1016B0004EC0EC0122971B821A82A091DA02B091EF
:1016C000DB02109711F140E050E001C0DC01AC17E3
:1016D000BD0700F1BB83AA83FE0121913191E20F86
:1016E000F31FEA17FB0771F42E5F3F4F8D919C911A
:1016F0001197820F931F99838883FD0182819381C3
:101700009B838A834115510559F4D093DB02C09322
:10171000DA021DC0FD0182819381AD010097B1F60F
:10172000FA01D383C28321913191E20FF31FEC17A9
:10173000FD0769F42E5F3F4F88819981820F931FC7
:10174000FA01918380838A819B8193838283DF91D5
:10175000CF910895DC0101C06D9341505040E0F7F6
:101760000895AA1BBB1B51E107C0AA1FBB1FA617E8
:10177000B70710F0A61BB70B881F991F5A95A9F73A
:1017800080959095BC01CD01089597FB092E072601
:101790000AD077FD04D0E5DF06D000201AF470955A
:1017A00061957F4F0895F6F7909581959F4F089525
:1017B000202A57656C636F6D6520746F20757365A3
:1017C0002A0000202A2A2A47726F757020204F2A8B
:1017D0002A2A00202A2A536D6172742054616C6B8E
:1017E0002A2A00737570706F7274656420627920A4
:1017F0004F4F53284F626C6976696F6E204F5329A3
:101800002076657273696F6E20312E302E30007035
:101810007265737320616E79206B657920746F2017
:10182000636F6E74696E75652E2E2E2E002E00630A
:101830006F6E6E6563746564001000803000560240
:10184000100000800F005602060000A0FF0F0000ED
:10185000F40400C6FF0000000200009807005402D4
:1018600000000098F0005402700000901800500230
:10187000080000900700500205000090E0005002B0
:1018800020000608082094000000D2012000DC029D
:02189000000056
:00000001FF
