:100000000C94D6010C94F3010C94F3010C945A0354
:100010000C94F3010C94F3010C94F3010C94F30190
:100020000C94F3010C94F3010C94F3010C94F30180
:100030000C94F3010C94F3010C94F3010C94F30170
:100040000C94F3010C94F3010C94F3010C94F30160
:100050000C94F3010C94F3010C94F3010C94F30150
:100060000C94F3010C94F3010C94F3010C94F30140
:100070000C94F3010C94F3010C94F301D6800182EB
:10008000F4A402C62D94ABC281CAF7C4709800C80C
:1000900000E08182020000000000000122202020F8
:1000A0000000200152505000000000015250F85052
:1000B000F85050012278A07028F02001C2C810200A
:1000C000409818016290A040A8906801622040000A
:1000D000000000011220404040201001422010107A
:1000E000102040010220A870A8200001022020F862
:1000F000202000010200000000602041020000F802
:1001000000000001020000000060600102081020F1
:1001100040800001728898A8C88870012260202061
:1001200020207001728808102040F801FA10201079
:100130000888700112305090F8101001FA80F00811
:1001400008887001324080F088887001FA08102019
:100150004040400172888870888870017288887871
:1001600008106001026060006060000102606000D1
:100170006020400112204080402010010200F80061
:10018000F800000142201008102040017288081079
:100190002000200172880868A8A8700172888888E9
:1001A000F8888801F28888F08888F0017288808059
:1001B00080887001E29088888890E001FA8080F061
:1001C0008080F801FA8080F080808001728880B899
:1001D000888878018A8888F8888888017220202099
:1001E000202070013A101010109060018A90A0C079
:1001F000A0908801828080808080F8018AD8A8A899
:10020000888888018A88C8A8988888017288888820
:1002100088887001F28888F08080800172888888E0
:10022000A8906801F28888F0A09088017A80807098
:100230000808F001FA202020202020018A888888E0
:10024000888870018A888888885020018A8888A8D0
:10025000A8A850018A885020508888018A88885030
:1002600020202001FA0810204080F8017240404010
:1002700040407001028040201008000172101010F0
:1002800010107001225088000000000102000000E0
:100290000000F80142201000000000010200700878
:1002A000788878018280B0C88888F0010200708068
:1002B000808870010A086898888878010200708830
:1002C000F8807001324840E0404040010278888860
:1002D000780870018280B0C8888888012200602078
:1002E000202070011200301010906001828090A0D8
:1002F000C0A0900162202020202070010200D0A820
:10030000A8A8A8010200B0C88888880102007088E7
:10031000888870010200F088F080800102006898EF
:10032000780808010200B0C8808080010200708057
:100330007008F0014240E0404048300102008888E7
:100340008898680102008888885020010200888807
:10035000A8A8500102008850205088010200888817
:10036000780870010200F8102040F80112202040A7
:1003700020201001222020202020200142202010B7
:1003800020204001020068900000000102000000EF
:100390000000000100505000008870000050500024
:1003A000007088000050500088A8500011241FBE23
:1003B000CFEFD0E1DEBFCDBF11E0A0E0B1E0E8E7D4
:1003C000F8E102C005900D92A43EB107D9F712E002
:1003D000A4EEB1E001C01D92AE3DB107E1F70E946D
:1003E0004E020C943A0C0C9400008091CF02909134
:1003F000D0020E943D091092C6021092C5021092CE
:10040000C8021092C70208950E94710782E00E94FC
:100410004E078FEF9FEF9093D0028093CF02109200
:10042000CE021092CD020E94F5010E94200A909304
:10043000D7028093D602119A08950E9404020E9466
:10044000F50183E08093C20280E098EF9093D002A0
:100450008093CF020E94F50180EE97E09093CE0248
:100460008093CD0280E091E00E94DD0A82E191E07C
:100470000E94DD0A83E191E00E94DD0A83E291E0BF
:100480000E94DD0A81E08093C20283E391E00E9432
:10049000DD0A8FE591E00E94DD0A0895AF92BF92D8
:1004A000CF92DF92EF92FF921F93DF93CF93CDB75E
:1004B000DEB72B970FB6F894DEBF0FBECDBF0E94FC
:1004C0001D0288EE93E02CE231E0F9013197F1F75B
:1004D0000197D9F70E949B0488EE93E02CE231E06B
:1004E000F9013197F1F70197D9F7DE011196EFE79E
:1004F000F1E08BE001900D928150E1F778945E017C
:100500000894A11CB11CFCEDCF2EF5E0DF2EECE22F
:10051000EE2EE1E0FE2E2091B802822F90E0FC0149
:1005200075E0EE0FFF1F7A95E1F7880F991FE80F2E
:10053000F91FE159FD4F80818230B9F5822F90E09B
:100540009C0155E0220F331F5A95E1F7880F991F40
:10055000280F391F2D583D4F3093E5012093E401BA
:1005600010E00FC0E091E401F091E501E10FF11D11
:100570006091D6027091D702808190E00E94B10A0A
:100580001F5F8091B80290E0FC0135E0EE0FFF1F85
:100590003A95E1F7880F991FE80FF91FE159FD4FD0
:1005A00081811817F8F20E9485048DE791E00E947E
:1005B000DD0A8BE060E0A5010E94EE0410E00E94DD
:1005C0003A04C6010197F1F71F5F1436C1F788E8B6
:1005D00093E1F7013197F1F70197D9F79CCF2C9868
:1005E0009EBD0DB407FEFDCF8EBD0DB407FEFDCF41
:1005F0002C9A08952C989EBD0DB407FEFDCF3EB5F4
:100600008EBD0DB407FEFDCF2EB5932F80E02C9A42
:1006100030E0282B392BC9010895EA980E94EF0297
:10062000EA9A0895CF93DF93A82FB0E0FD0183E00D
:10063000EE0FFF1F8A95E1F7E657FE4F778366833B
:10064000FD0153E0EE0FFF1F5A95E1F7E257FE4F11
:10065000C081D181209719F440E050E010C088811A
:100660009981FD0143E0EE0FFF1F4A95E1F7E45742
:10067000FE4F40815181409550954823592333E0E6
:10068000AA0FBB1F3A95E1F7FD01E457FE4F8081A9
:10069000918186239723A657BE4F2D913C91822BA3
:1006A000932B842B952B998388830E940D03DF91D4
:1006B000CF91089578941F920F920FB60F92112444
:1006C000CF92DF92EF92FF920F931F932F933F935E
:1006D0004F935F936F937F938F939F93AF93BF934A
:1006E000EF93FF93EA980091C10284E0C82E12E0D4
:1006F000D12EB2E2EB2EFF24F394CCBA2C981EBC80
:100700000DB407FEFDCF2C9A0EB407FE99C01091D0
:10071000B3021130B9F1113020F0123009F085C068
:1007200069C0F092B60280E090EB0E94FA02082FB6
:100730000D5F0093B50203502091B702822F90E025
:10074000FC01A5E0EE0FFF1FAA95E1F7880F991FA6
:10075000E80FF91FE159FD4F8081882309F065C03A
:10076000F092B302822F90E0FC0165E0EE0FFF1FD4
:100770006A95E1F7880F991FE80FF91FE159FD4FBE
:100780000183BBCF80E090EB0E94FA02282F90916A
:10079000B6028091B5029817C0F40227913258F43E
:1007A000E091B702EE9DF00111243196E90FF11DA1
:1007B000E159FD4F20838091B602823011F40F3F42
:1007C000A1F58F5F8093B60298CF8091B702282F52
:1007D00030E0F90145E0EE0FFF1F4A95E1F7220FE7
:1007E000331FE20FF31FE159FD4FD0828127809321
:1007F000B7021BC02091B6028091B502281758F4A9
:10080000E22FF0E0E45BFD4F808190E02F5F2093CA
:10081000B602986B12C01092B40281E892E80E946E
:10082000EF028AEA98EB0E94EF021092B30281E88D
:100830009AEC0E94EF0283E89AEC0E94EF025DCFEF
:100840000093C102EA9AFF91EF91BF91AF919F91FE
:100850008F917F916F915F914F913F912F911F9158
:100860000F91FF90EF90DF90CF900F900FBE0F9001
:100870001F9018958091B302882391F5EA9880E043
:1008800090E00E94FA02EA9A90FF02C088EC05C04C
:100890008091D201882321F081508093D201089564
:1008A0008091B4028130E1F4EA9881E092E80E94FC
:1008B000EF0280914E028A5F8093B5021092B602D9
:1008C00082E08093B3028AEA98EB0E94EF028AEA00
:1008D00098EB0E94EF0281E292E80E94EF02EA9A0E
:1008E0000895982F8091B402882311F083E0089531
:1008F00060934E0290934F02692760956093500277
:1009000081E08093B40280E808952091B802822F9C
:1009100090E0FC0145E0EE0FFF1F4A95E1F7880FDC
:10092000991FE80FF91FE159FD4F108281E0282738
:100930002093B8020895CF93DF932C9A249A259A96
:10094000279A2C9A249A269881E58CBD8DE2809373
:100950004C0284ED80934D021092B7021092B802BF
:100960008DE294E99093BA028093B90287EF94ECF8
:100970009093BC028093BB0280E798E99093BE02FB
:100980008093BD0286ED90E89093C0028093BF02F1
:10099000C0E0D0E0FE01EE0FFF1FE458FF4F85914D
:1009A00094910E94EF022196CC30D10599F7809165
:1009B000690080628093690080E090E00E94FA0202
:1009C00084E08CBB81E89AEC0E94EF0283E89AEC09
:1009D0000E94EF02EA9ADF91CF9108950F931F933F
:1009E000182F062F8F3110F082E012C08091B402D0
:1009F000882311F083E00CC021E532E0C901BA017F
:100A0000412F50E00E945C0A802F612F0E947104E8
:100A10001F910F91089598B91398139A88B9139854
:100A2000139A0895149888B91398139A149A0895EC
:100A3000282F30E0A9014170507080FD02C098E27B
:100A400001C098E49093D30221FF04C080EC982762
:100A50009093D30222FF0AC09091D302452B11F448
:100A600080E401C080E889278093D30286E30E9456
:100A700012058091D30288B91398139A0895AF9202
:100A8000BF92CF92DF92EF92FF920F931F938C0150
:100A90007B016A0159018AE20E941205C8010E9485
:100AA0000B0501501040C8018C0D9D1D0E940B05C7
:100AB0008BE20E941205C7010E940B050894E10811
:100AC000F108C7018A0D9B1D0E940B051F910F9114
:100AD000FF90EF90DF90CF90BF90AF900895CF93AD
:100AE000DF939C01EA018091C9029091CA02281704
:100AF0003907A0F48091CB029091CC026817790756
:100B000068F4C90141E050E021E030E00E943F0577
:100B10008CE20E941205CE010E940B05DF91CF915D
:100B20000895982FE091DB01F091DC018081891715
:100B300019F48181861761F0E3EDF1E08081891776
:100B400049F48181861731F4F093DC01E093DB01F5
:100B500081E008950680F781E02D309779F780E0F5
:100B60000895CF92DF92EF92FF920F931F93CF934E
:100B7000DF93FC016A017901141615060CF04FC0D1
:100B8000121613060CF04BC097FF04C0C80ED91EF6
:100B9000E0E0F0E077FF04C0E60EF71E60E070E0F2
:100BA0001C141D04E4F51E141F04CCF52091C90289
:100BB0003091CA02CF018C0D9D1D2817390718F4FA
:100BC0006901CE1ADF0A2091CB023091CC02CB0111
:100BD0008E0D9F1D2817390718F47901E61AF70AB8
:100BE0001C141D04E4F41E141F04CCF4CF01A60150
:100BF00097010E943F058CE20E9412050AC0C801BD
:100C00000E940B052196CC15DD05C8F30894E10878
:100C1000F108E114F10419F0C0E0D0E0F4CFDF9165
:100C2000CF911F910F91FF90EF90DF90CF9008959B
:100C30002F923F924F925F926F927F928F929F92EC
:100C4000AF92BF92CF92DF92EF92FF920F931F93DA
:100C5000CF93DF932C013B015A014901C02EDD24C3
:100C6000EA01CC19DD09AE01960187010E94B105A8
:100C700014012C183D08A40CB51CC5018C199D0944
:100C8000B301A60191010E94B105B601660D771D61
:100C9000C201A60191010E94B105860C971C8C1817
:100CA0009D08C601840D951DB401AE0196010E94F8
:100CB000B105DF91CF911F910F91FF90EF90DF90E1
:100CC000CF90BF90AF909F908F907F906F905F90EC
:100CD0004F903F902F9008954F925F926F927F9226
:100CE0008F929F92AF92BF92CF92DF92EF92FF923C
:100CF0000F931F93CF93DF93EC017B016A0159019E
:100D000028018091C9029091CA028C179D0710F4A6
:100D1000EC0121978C159D0520F46C010894C10805
:100D2000D1088091CB029091CC028E159F0520F4C2
:100D30007C010894E108F1088A159B0520F45C0108
:100D40000894A108B108CC15DD0589F4AE14BF04E0
:100D500018F4C50157017C010894A11CB11CAE1800
:100D6000BF08CE01B70141E050E0950113C0EA147D
:100D7000FB04A1F4CC16DD0618F4C6016E01EC01EB
:100D80000894C11CD11CCC1ADD0ACE01B701A60102
:100D900021E030E082010E94B1056FC036016C1A7B
:100DA0007D0A77FE04C070946194710873944501C4
:100DB0008E189F0897FE04C0909481949108939494
:100DC0006814790470F5AE14BF0430F4C6016E01E6
:100DD000EC01C50157017C0100E010E01EC0CC16FB
:100DE000DD0618F021E030E002C02FEF3FEFC80130
:100DF000B4010E94350A269FC001279F900D369F9F
:100E0000900D11248C0F9D1FB701A2010E946F0548
:100E10000894E11CF11C060D171DAE14BF04F8F672
:100E20002CC0CC16DD0630F4C6016E01EC01C50104
:100E300057017C0100E010E01DC0AE14BF0418F0A3
:100E400021E030E002C02FEF3FEFC801B3010E9464
:100E5000350ACB01289FB001299F700D389F700D76
:100E600011246E0D7F1DCE01A2010E946F052196F7
:100E7000080D191DCC16DD0600F7DF91CF911F91EB
:100E80000F91FF90EF90DF90CF90BF90AF909F9029
:100E90008F907F906F905F904F90089540E451E065
:100EA0005093CA024093C90220EF30E03093CC0245
:100EB0002093CB0280FF08C03093CA022093C9025E
:100EC0005093CC024093CB021092C6021092C502FE
:100ED0001092C8021092C7028093C3020E941805A4
:100EE00008951F9392B188B1981721F098B188B1F5
:100EF000981731F485B7806885BF85B7806885BF4E
:100F00008FE781B98DEF82B917B88FEF88B9129842
:100F10001098139A159A149A169A88E28A95F1F7FE
:100F2000129A80EB94E02CE231E0F9013197F1F76D
:100F30000197D9F78FEF87B988E20E94120581E106
:100F40000E94120580EB94E02CE231E0F901319728
:100F5000F1F70197D9F784E30E94120588E30E9414
:100F6000120583E10E94120580E20E9412058AE3C5
:100F70000E94120585E588B91398139A86E30E94AA
:100F8000120588E488B91398139A8CE20E9412051E
:100F900080E090E00EC018B81398139A18B8139810
:100FA000139A2F5F203FB9F7019621E08034920712
:100FB00011F020E0F0CF81EB0E94120518B81398D1
:100FC000139A18E118B91398139A83EB0E9412052B
:100FD00018B81398139A18B91398139A89E20E94B3
:100FE00012051092C6021092C5021092C802109209
:100FF000C70281E08093C2020E944E0784E0809382
:10100000C4028FEF9FEF9093CE028093CD02109297
:10101000D0021092CF021F910895BF92CF92DF921B
:10102000EF92FF920F931F93CF93DF93182F20918E
:10103000C5023091C602E091DB01F091DC015081E4
:101040004091C202459FC0011124820F931F97FD5A
:101050005CC08181489FB02C1124459FE02C112455
:101060006091C7027091C802C9014E2D50E02B2D2E
:1010700030E00E943F058CE20E941205FF24C12E41
:10108000DD2440C0E091DB01F091DC016091C202FF
:101090008F2D90E070E00E94350A83819601281B15
:1010A0003109828190E0AC01249FC001259F900D01
:1010B000349F900D1124860F971F0480F581E02D39
:1010C000E80FF91F049110E0C1E0D0E018C007FF5D
:1010D00005C08091CD029091CE0204C08091CF02D4
:1010E0009091D0020E940B056091C202CE0170E087
:1010F0000E94490A892B09F4000F1F5F21961E15D3
:1011000030F3F394FB1408F4BDCFDF91CF911F911E
:101110000F91FF90EF90DF90CF90BF9008959F9236
:10112000AF92BF92CF92DF92EF92FF920F931F93F5
:10113000CF93DF93EC01CB01590168019E2CBA01DA
:10114000A90198010E943F058CE20E94120520E04F
:1011500010E0EE2428C0022F0F5F222351F4CE01AD
:101160000196992021F0FE01EC01149102C0188132
:10117000EC0117FF05C08091CD029091CE0204C012
:101180008091CF029091D0020E940B05083011F49B
:1011900000E001C0110FF394202F8F2D90E08A15ED
:1011A0009B05C8F2E3948E2D90E08C159D0510F4FC
:1011B000FF24F3CFDF91CF911F910F91FF90EF901C
:1011C000DF90CF90BF90AF909F9008959F92AF9285
:1011D000BF92CF92DF92EF92FF920F931F93CF9324
:1011E000DF93EC01CB01590168019E2CBA01A901E2
:1011F00098010E943F058CE20E94120510E0EE2447
:1012000028C0022F0F5F222351F4CE0101969920AE
:1012100021F0FE01EC01149102C01881EC0117FFCE
:1012200005C08091CD029091CE0204C08091CF0282
:101230009091D0020E940B05083011F400E001C02B
:10124000110FF394202F8F2D90E08A159B05C8F283
:10125000E3948E2D90E08C159D0518F420E0FF247A
:10126000F2CFDF91CF911F910F91FF90EF90DF9020
:10127000CF90BF90AF909F9008950F931F93CF93FF
:10128000DF938C01C091C902D091CA022091CB0298
:101290003091CC0280E090E060E070E0AE010E940E
:1012A0003F058CE20E9412055091CB024091CC0286
:1012B0000CC018B91398139A08B91398139A2150AF
:1012C000304021153105A9F72197209721F0852F6E
:1012D000942F9C01F6CFDF91CF911F910F9108952C
:1012E0001092C6021092C502E091DB01F091DC0180
:1012F0002091C2028181289F900111248091C70210
:101300009091C802820F931F9093C8028093C702E6
:10131000820F931F2091CB023091CC0228173907FE
:1013200070F48091CF029091D0020E943D091092FA
:10133000C6021092C5021092C8021092C702089508
:10134000E091DB01F091DC012091C2028081289FB5
:10135000900111248091C5029091C602820F931FC3
:101360009093C6028093C502820F931F2091C902F9
:101370003091CA022817390710F40E9470090895A5
:10138000CF93DF93893029F08A30B9F50E94700934
:101390003AC0C091C502D091C602E091DB01F09144
:1013A000DC016091C2028081689FB0011124CE01EE
:1013B0000E94350A009731F0C81BD90BD093C602A2
:1013C000C093C5020E94A009E091DB01F091DC010D
:1013D0006091C2028081689FB00111248091C50292
:1013E0009091C6020E94350ACB016091C40270E060
:1013F0000E94350A892B31F706C0803220F00E9406
:101400000D080E94A009DF91CF9108950E94C009A4
:1014100080E090E008951F93CF93DF93162FEC01A7
:1014200002C00E94C009112319F0FE01849101C07D
:10143000888121968823A9F7DF91CF911F91089584
:101440008091D1029091D202892B51F486E09AE0EA
:1014500060E070E00E94650A9093D2028093D1020E
:101460008091D1029091D2020895AA1BBB1B51E139
:1014700007C0AA1FBB1FA617B70710F0A61BB70B04
:10148000881F991F5A95A9F780959095BC01CD01A9
:10149000089597FB092E07260AD077FD04D0E5DFD3
:1014A00006D000201AF4709561957F4F0895F6F7E5
:1014B000909581959F4F0895FB01DC0102C001903A
:1014C0000D9241505040D8F708950F931F93CF933A
:1014D000DF938C01EB01009731F46115710519F46C
:1014E00020E030E038C081E090E06EE070E00E94E3
:1014F000120BFC019C01009771F180E88383209717
:1015000071F0D387C28781E883838091D402909160
:10151000D502892B21F4F093D502E093D402011572
:101520001105C9F0118700878381826083838091D0
:10153000D6029091D702892B71F4F093D702E093F1
:10154000D6028091D8029091D902892B21F4F09390
:10155000D902E093D802C901DF91CF911F910F9179
:1015600008950F931F93CF93DF938C01EB018B8131
:1015700081FF1BC082FF0DC02E813F818C819D8128
:101580002817390764F4E881F9810193F983E88326
:1015900006C0E885F985802F0995892B31F48E8165
:1015A0009F8101969F838E8302C00FEF1FEFC801BA
:1015B000DF91CF911F910F9108950F931F93CF93B8
:1015C000DF938C01E091D602F091D702838181FFF5
:1015D00021C0C0E0D0E00DC0E091D602F091D7026A
:1015E00020853185BF01F9010995892B11F0CFEFD5
:1015F000DFEFF80181918F01882371F7E091D60226
:10160000F091D702208531858AE0BF01F901099563
:10161000892B11F0CFEFDFEFCE01DF91CF911F913A
:101620000F9108950F931F93CF93DF93689F8001CD
:10163000699F100D789F100D1124C8010E942E0B78
:10164000EC01009729F060E070E0A8010E94330CE3
:10165000CE01DF91CF911F910F910895CF93DF932A
:10166000BC018230910510F462E070E0A091DC02D0
:10167000B091DD02ED01E0E0F0E040E050E021C09B
:10168000888199818617970769F48A819B813097B1
:1016900019F09383828304C09093DD028093DC026F
:1016A000FE0134C06817790738F44115510519F067
:1016B0008417950708F4AC01FE018A819B819C0187
:1016C000E9012097E9F641155105A9F1CA01861BE8
:1016D000970B049708F4BA01E0E0F0E02AC08D917E
:1016E0009C91119784179507F9F46417750781F495
:1016F00012968D919C911397309719F09383828362
:1017000004C09093DD028093DC02FD0132964FC04D
:10171000CA01861B970BFD01E80FF91F61937193B6
:1017200002978D939C9343C0FD01828193819C011C
:10173000D9011097A1F68091DA029091DB02892BF2
:1017400041F48091DF019091E0019093DB0280935E
:10175000DA024091E1015091E2014115510541F455
:101760004DB75EB78091DD019091DE01481B590BAA
:101770002091DA023091DB0224173507B0F4CA0158
:10178000821B930B8617970780F0AB014E5F5F4F6C
:101790008417950750F0420F531F5093DB0240937C
:1017A000DA02F9016193719302C0E0E0F0E0CF0149
:1017B000DF91CF910895CF93DF93009709F450C044
:1017C000EC0122971B821A82A091DC02B091DD020B
:1017D000109709F140E050E0AC17BD0708F1BB835A
:1017E000AA83FE0121913191E20FF31FAE17BF07CB
:1017F00079F48D919C911197280F391F2E5F3F4FDF
:101800003983288312968D919C9113979B838A83A9
:101810004115510571F4D093DD02C093DC0220C064
:1018200012968D919C911397AD01009711F0DC01F8
:10183000D3CFFA01D383C28321913191E20FF31FF9
:10184000CE17DF0769F488819981280F391F2E5F31
:101850003F4FFA01318320838A819B819383828366
:10186000DF91CF910895DC0101C06D93415050404C
:08187000E0F70895F894FFCFA2
:10187800202A57656C636F6D6520746F20757365DA
:101888002A0000202A2A2A47726F757020204F2AC2
:101898002A2A00202A2A536D6172742054616C6BC5
:1018A8002A2A00737570706F7274656420627920DB
:1018B8004F4F53284F626C6976696F6E204F5329DA
:1018C8002076657273696F6E20312E302E3000706D
:1018D8007265737320616E79206B657920746F204F
:1018E800636F6E74696E75652E2E2E2E002E00683D
:1018F800656C6C6F206E6174680000803000BF02F8
:10190800100000800F00BF02060000A0FF0F0000BB
:10191800F40400C6FF000000020000980700BD02A2
:1019280000000098F000BD02700000901800B90295
:10193800080000900700B90205000090E000B90215
:101948002000100608082094000000D3012000DEC3
:041958000200000089
:00000001FF
